:020000040000FA
:10000000D87F0010614E0000694E00006B4E00006A
:100010006D4E00006F4E0000714E000000000000A9
:10002000000000000000000000000000734E00000F
:10003000754E000000000000774E000019230000FC
:100040007B4E0000353200007B4E0000773200000E
:100050007B4E00007B4E00007B4E00007B4E00007C
:100060007B4E00007B4E00007B4E00007B4E00006C
:100070007B4E00007B4E00007B4E00007B4E00005C
:100080007B4E00007B4E00007B4E00007B4E00004C
:100090007B4E00007B4E00007B4E00007B4E00003C
:1000A000BB3501007B4E00007B4E00007B4E000004
:1000B0007B4E00007B4E00007B4E00007B4E00001C
:1000C0007B4E00007B4E00007B4E000000F002F8EB
:1000D00000F076F80AA090E8000C82448344AAF16C
:1000E0000107DA4501D100F06BF8AFF2090EBAE86A
:1000F0000F0013F0010F18BFFB1A43F0010318475C
:10010000C83B0600E83B060010F8013B0A4413F028
:10011000030408BF10F8014B1D1108BF10F8015B64
:10012000641E05D010F8016B641E01F8016BF9D153
:10013000002D15D010F8014B03F00C030C2BA1EB94
:1001400004040ABF10F8013BA4EB8314A4EB0324BE
:1001500005F1010314F8016B5B1E01F8016BF9D581
:10016000914238BF10F8013BD1D3704700230024DF
:1001700000250026103A28BF78C1FBD8520728BFB7
:1001800030C148BF0B607047732904F026820020FD
:1001900070471FB59DE8030004F0BAF904F07EFC37
:1001A00004000020002126F0DBFA401C606004F00F
:1001B000B5FC04F077F91FBD10B504F018FD10BDB3
:1001C00004F094FD1146FFF7E4FF02F0F6F804F0A6
:1001D0000CFE03B4FFF7F0FF03BC03F0A7FD000023
:1001E00000BF70470C48006870470B4A126811182E
:1001F00000BF094A12688A1A002AFADC70470020F8
:100200000549086070477047704770477047002085
:1002100070477047704770470000001010B54FF4EA
:100220008041034808F00AFF802009F037F810BD2C
:10023000D436001010B50446204600F0AFF810BDCB
:1002400010B50446204600F0EBF810BD70B504462A
:100250000D4603E0208800F0E3F8A41C2800A5F177
:100260000105F7D170BD70B504460D4603E000F0FE
:1002700014F92080A41C2800A5F10105F7D170BD58
:1002800070B505460C462846FFF7D4FF2046FFF719
:10029000D7FF70BD10B500F091F900BF00BF10BDD1
:1002A00010B5FFF7F7FF10BD10B5A0B014211BA8C3
:1002B00004F065F8682101A804F061F800231A46EB
:1002C0001E491F4809F028FC04464FF4A072F02193
:1002D00000200EF0CFFB4FF4A072F02100200EF0B2
:1002E000DFFB06201D9046F67000ADF878001BA9D4
:1002F000204608F02DFB1348099013480A90134834
:100300000C9013481090134B134A01A9204608F093
:100310003FFB20B010BD2DE9F04106460C461746C4
:10032000012C04D1FFF7BCFF0020BDE8F0814FF0A5
:10033000FF3500BF00BF2846F7E70000ACBF05004F
:100340005008060035020000410200004D02000086
:10035000670200002D8A0000C589000070B50546BF
:100360000C46A4F12000044A02EB0011102228469A
:1003700003F022FF70BD00008C670200FE48006C95
:1003800040F43C50FC4908644FF470608865704745
:1003900000BF0100A0F10100FBD1704770B5044619
:1003A0004FF48070F449C8654000C86580008865D6
:1003B00000BF0846006840F4FF0008600846006877
:1003C00040F47F600860250A0846C06940F4FF00D9
:1003D000C8610846806940EAC5308861FFF700FFC0
:1003E000E5B2E548C06940F47F60E349C86108466A
:1003F000806940EA05108861FFF7F2FE00BF19200E
:10040000FFF7C6FF4FF48060DB49C8650120FFF7A6
:10041000BFFF4FF48060D84988658010886570BD43
:1004200070B504464FF48070D349C86540008865B4
:1004300000BF0846006840F4FF00086008460068F6
:1004400040F47F600860250A0846C06940F4FF0058
:10045000C8610846806940EAC5308861FFF7C0FE80
:10046000E5B2C548C06940F47F60C349C861084629
:10047000806940EA05108861FFF7B2FE00BF4FF4C3
:100480008060BD49C8650120FFF782FF4FF480609E
:10049000B94988658010886570BD2DE9F0414FF439
:1004A0008070B549C8654000886540008865400097
:1004B000C86500BF0846006820F4FF0008600846D1
:1004C000006820F47F6008603220FFF761FFAA48CF
:1004D0004069C0F3C735A8484069C0F3071747EA29
:1004E000052600BF34464FF40060A3498865C0105C
:1004F00088652046BDE8F08170B505460C46284663
:10050000FFF74CFF2046FFF78BFF70BD70B5044628
:100510002046FFF743FFFFF7C0FF0546284670BDA2
:1005200070B504460D4626462C4640F23F10801B0F
:1005300085B292480078001F0B2807D2DFE800F050
:100540000F1006060606191B1A062C00214620204D
:10055000FFF7D2FF29462120FFF7CEFF1DE000BFA5
:1005600021464E20FFF7C8FF29464F20FFF7C4FF62
:1005700013E000BF00BF21120220FFF7BDFF21469C
:100580000320FFF7B9FF29120620FFF7B5FF294620
:100590000720FFF7B1FF00E000BF00BF70BD0021E2
:1005A00009E0002201E0531C9AB240F275439A42DE
:1005B000F9DB4B1C99B28142F3DB704710B56E48F2
:1005C000006840F4FF006C4908600846006840F489
:1005D0007F6008600846006C40F43C5008644FF4AB
:1005E0003C5088650846C06D40F40050C865322014
:1005F000FFF7D5FF6048806D40F400505E49886584
:10060000FFF7BCFE6420FFF7CAFF0020FFF77EFF64
:10061000044649F22530844202D0C01C84427DD178
:100620000120564908701021E720FFF765FF0121DE
:100630000020FFF761FF4FF480710120FFF75CFF9E
:100640004FF4E0610220FFF757FF41F23001032031
:10065000FFF752FF00210420FFF74EFF40F2072171
:100660000820FFF749FF00210920FFF745FF00217F
:100670000A20FFF741FF01210C20FFF73DFF002179
:100680000D20FFF739FF00210F20FFF735FF002174
:100690001020FFF731FF07211120FFF72DFF002168
:1006A0001220FFF729FF00211320FFF725FF32203A
:1006B000FFF775FF41F290511020FFF71DFF40F248
:1006C00027211120FFF718FF3220FFF768FF9C2138
:1006D0001220FFF711FF3220FFF761FF4FF4C851DE
:1006E0001320FFF709FF23212920FFF705FF0E2123
:1006F0002B20FFF701FF3220FFF751FF00212020C0
:10070000FFF7FAFE00212120FFF7F6FE3220FFF767
:1007100046FF07213020FFF7EFFE00E08EE040F2B9
:1007200007713120FFF7E8FE06213220FFF7E4FED3
:1007300040F204713520FFF7DFFE41F604713620E8
:10074000FFF7DAFE04213720FFF7D6FE002138201C
:10075000FFF7D2FE40F206713920FFF7CDFE40F2DE
:1007600001713C20FFF7C8FE0F213D20FFF7C4FEBA
:100770003220FFF714FF03E000C00920040000103E
:1007800000215020FFF7B8FEEF215120FFF7B4FE03
:1007900000215220FFF7B0FE40F23F115320FFF737
:1007A000ABFE4FF427416020FFF7A6FE0121612038
:1007B000FFF7A2FE00216A20FFF79EFE00218020A5
:1007C000FFF79AFE00218120FFF796FE002182208C
:1007D000FFF792FE00218320FFF78EFE0021842088
:1007E000FFF78AFE00218520FFF786FE102190206A
:1007F000FFF782FE00219220FFF77EFE0321932067
:10080000FFF77AFE4FF488719520FFF775FE0021FF
:100810009720FFF771FE00219820FFF76DFE40F250
:1008200033110720FFF768FE00212020FFF764FE48
:1008300000212120FFF760FE01F05BBB49F2203070
:10084000844202D0B4F5134F7ED10020FE490870D7
:1008500000210846FFF750FE4FF480710120FFF79A
:100860004BFE4FF4E0610220FFF746FE41F2180113
:100870000320FFF741FE00210420FFF73DFE40F278
:1008800002210820FFF738FE00210920FFF734FE7F
:1008900000210A20FFF730FE01210C20FFF72CFE7B
:1008A00000210D20FFF728FE00210F20FFF724FE76
:1008B0006420FFF774FE40F201110720FFF71CFED1
:1008C0006420FFF76CFE4FF486511020FFF714FEF2
:1008D00007211120FFF710FE4FF488711220FFF757
:1008E0000BFE4FF430611320FFF706FE0021292094
:1008F000FFF702FE44F210012B20FFF7FDFD00215F
:100900005020FFF7F9FDEF215120FFF7F5FD002101
:100910005220FFF7F1FD40F23F115320FFF7ECFDAD
:100920004FF41C516020FFF7E7FD01216120FFF724
:10093000E3FD00216A20FFF7DFFD00218020FFF7A3
:10094000DBFD0021812000E030E0FFF7D5FD002134
:100950008220FFF7D1FD00218320FFF7CDFD00218C
:100960008420FFF7C9FD00218520FFF7C5FD102178
:100970009020FFF7C1FD00219220FFF7BDFD01216E
:100980009320FFF7B9FD4FF488719520FFF7B4FD70
:1009900000219720FFF7B0FD00219820FFF7ACFD64
:1009A00040F273110720FFF7A7FD45E749F2313008
:1009B00084427CD10320A449087041F21401E7204D
:1009C000FFF79AFD4FF480710120FFF795FD4FF47A
:1009D00000710220FFF790FD41F230010320FFF784
:1009E0008BFD40F202210820FFF786FD002109203F
:1009F000FFF782FD00210A20FFF77EFD00210C2079
:100A0000FFF77AFD00210D20FFF776FD00210F2072
:100A1000FFF772FD00211020FFF76EFD0721112066
:100A2000FFF76AFD00211220FFF766FD0021132069
:100A3000FFF762FDC820FFF7B2FD41F29061102080
:100A4000FFF75AFD40F227211120FFF755FD322014
:100A5000FFF7A5FD0C211220FFF74EFD3220FFF716
:100A60009EFD4FF400611320FFF746FD1121292060
:100A7000FFF742FD0B212B20FFF73EFD3220FFF751
:100A80008EFD00212020FFF737FD00212120FFF7F8
:100A900033FD00213020FFF72FFD4FF4837131200B
:100AA000FFF72AFD00213220FFF726FD00E075E068
:100AB0004FF401713520FFF71FFD41F20A61362026
:100AC000FFF71AFD40F207713720FFF715FD4FF4CD
:100AD00083713820FFF710FD40F207713920FFF7CE
:100AE0000BFD40F202413C20FFF706FD40F60F41AE
:100AF0003D20FFF701FD00215020FFF7FDFCEF2115
:100B00005120FFF7F9FC00215220FFF7F5FC40F2DD
:100B10003F115320FFF7F0FC4FF41C516020FFF70A
:100B2000EBFC01216120FFF7E7FC00216A20FFF7C1
:100B3000E3FC00218020FFF7DFFC00218120FFF78C
:100B4000DBFC00218220FFF7D7FC00218320FFF788
:100B5000D3FC00218420FFF7CFFC00218520FFF784
:100B6000CBFC10219020FFF7C7FC4FF4C06192200E
:100B7000FFF7C2FC21210720FFF7BEFC3220FFF760
:100B80000EFD61210720FFF7B7FC3220FFF707FDBC
:100B900040F233110720FFF7AFFC4DE649F619107C
:100BA00084427DD10E202849087006212820FFF7B5
:100BB000A3FC01210020FFF79FFC00211020FFF77C
:100BC0009BFC47F2EF210120FFF796FC4FF4C06138
:100BD0000220FFF791FC46F638210320FFF78CFC3A
:100BE00046F674011120FFF787FC00210F20FFF764
:100BF00083FC45F208310B20FFF77EFC03210C201B
:100C0000FFF77AFC0A210D20FFF776FC4FF43851EC
:100C10000E20FFF771FCBE211E20FFF76DFC4FF484
:100C200000412520FFF768FC4FF4F0412620FFF734
:100C300063FC78212720FFF75FFC00214E20FFF79F
:100C40005BFC00214F2001E004000010FFF754FC82
:100C500040F6D9011220FFF74FFC00213020FFF7AA
:100C60004BFC4FF482713120FFF746FC4FF480714A
:100C70003220FFF741FC40F205313320FFF73CFC06
:100C800040F205513420FFF737FC40F205313520A2
:100C9000FFF732FC40F207713620FFF72DFC00E031
:100CA00013E04FF440713720FFF726FC4FF49051CA
:100CB0003A20FFF721FC4FF400613B20FFF71CFCBA
:100CC00033210720FFF718FCB6E541F205508442B6
:100CD00003D040F2055084427ED10920FE490870BD
:100CE0004FF40041E520FFF707FC01210020FFF74A
:100CF00003FC10212B20FFF7FFFB4FF48071012034
:100D0000FFF7FAFB4FF4E0610220FFF7F5FB41F239
:100D100018010320FFF7F0FB00210420FFF7ECFB94
:100D200040F202210820FFF7E7FB00210920FFF72E
:100D3000E3FB00210A20FFF7DFFB00210C20FFF777
:100D4000DBFB00210D20FFF7D7FB00210F20FFF771
:100D5000D3FB00215020FFF7CFFBEF215120FFF7FD
:100D6000CBFB00215220FFF7C7FB40F23F1153207D
:100D7000FFF7C2FB4FF41C516020FFF7BDFB0121C0
:100D80006120FFF7B9FB00216A20FFF7B5FB0021C6
:100D90008020FFF7B1FB00218120FFF7ADFB002190
:100DA0008220FFF7A9FB00218320FFF7A5FB00218C
:100DB0008420FFF7A1FB00218520FFF79DFB102178
:100DC0009020FFF799FB00219220FFF795FB03216C
:100DD0009320FFF791FB00E07DE04FF488719520B0
:100DE000FFF78AFB00219720FFF786FB0021982060
:100DF000FFF782FB00211020FFF77EFB002111206E
:100E0000FFF77AFB00211220FFF776FB0021132069
:100E1000FFF772FB6420FFF7C2FB41F2B0711020B4
:100E2000FFF76AFB04211120FFF766FB3220FFF772
:100E3000B6FB4FF49F711220FFF75EFB3220FFF7E5
:100E4000AEFB4FF4F8511320FFF756FB0F2129207A
:100E5000FFF752FB3220FFF7A2FB00212020FFF713
:100E60004BFB00212120FFF747FB4FF4017130209D
:100E7000FFF742FB01213120FFF73EFB002132202A
:100E8000FFF73AFB40F206213520FFF735FB4FF420
:100E9000C0613620FFF730FB4FF4A0613720FFF729
:100EA0002BFB40F205513820FFF726FB40F20741AB
:100EB0003920FFF721FB4FF4A0613C20FFF71CFB1A
:100EC00040F203513D20FFF717FB40F2731107205A
:100ED000FFF712FBB0E448F6891084427DD105206B
:100EE0007D49087001210020FFF706FB3220FFF743
:100EF00056FB4AF6A4010320FFF7FEFA3220FFF763
:100F00004EFB00210C20FFF7F7FA3220FFF747FBDA
:100F100040F60C010D20FFF7EFFA3220FFF73FFB00
:100F20004FF42C510E20FFF7E7FA3220FFF737FB82
:100F3000B0211E20FFF7E0FA3220FFF730FB42F627
:100F40003F310120FFF7D8FA3220FFF728FB4FF49A
:100F5000C0610220FFF7D0FA3220FFF720FB00210A
:100F60001020FFF7C9FA3220FFF719FB46F2700193
:100F70001120FFF7C1FA3220FFF711FB00210520F5
:100F8000FFF7BAFA3220FFF70AFB00210620FFF72D
:100F9000B3FA3220FFF703FB4EF61C711620FFF761
:100FA000ABFA3220FFF7FBFA03211720FFF7A4FA70
:100FB0003220FFF7F4FA40F233110720FFF79CFAD2
:100FC0003220FFF7ECFA00210B20FFF795FA3220D0
:100FD000FFF7E5FA00210F2000E0B8E0FFF78CFAF8
:100FE0003220FFF7DCFA00214120FFF785FA32209A
:100FF000FFF7D5FA00214220FFF77EFA3220FFF7F3
:10100000CEFA00214820FFF777FA3220FFF7C7FA1F
:1010100040F23F114920FFF76FFA3220FFF7BFFA85
:1010200000214A20FFF768FA3220FFF7B8FA0021C2
:101030004B20FFF761FA3220FFF7B1FA4FF46F410E
:101040004420FFF759FA3220FFF7A9FA0021452082
:10105000FFF752FA3220FFF7A2FA40F23F11462082
:10106000FFF74AFA3220FFF79AFA40F20771302070
:10107000FFF742FA3220FFF792FA4FF40171312064
:10108000FFF73AFA3220FFF78AFA4FF40171322063
:10109000FFF732FA3220FFF782FA40F20251332092
:1010A000FFF72AFA3220FFF77AFA40F2075134208C
:1010B000FFF722FA3220FFF772FA4FF40171352060
:1010C000FFF71AFA3220FFF76AFA4FF4017136205F
:1010D000FFF712FA322001E004000010FFF75FFA78
:1010E00040F202513720FFF707FA3220FFF757FA94
:1010F00040F202313A20FFF7FFF93220FFF74FFAB2
:1011000040F202313B20FFF7F7F93220FFF747FAB0
:1011100000212320FFF7F0F93220FFF740FA0021E9
:101120002420FFF7E9F93220FFF739FA4FF40041A4
:101130002520FFF7E1F93220FFF731FA00214F2097
:10114000FFF7DAF900214E20FFF7D6F92DE448F633
:10115000991084427ED10420FD4908700621282080
:10116000FFF7CAF901210020FFF7C6F94AF6A4618A
:101170000320FFF7C1F904210C20FFF7BDF90C2172
:101180000D20FFF7B9F94FF420510E20FFF7B4F905
:10119000B5211E20FFF7B0F943F63F310120FFF7DC
:1011A000ABF94FF4C0610220FFF7A6F9002110202F
:1011B000FFF7A2F946F630011120FFF79DF9002153
:1011C0000520FFF799F900210620FFF795F94EF663
:1011D0001C711620FFF790F933210720FFF78CF9D7
:1011E00000210B20FFF788F900210F20FFF784F979
:1011F00000214120FFF780F900214220FFF77CF910
:1012000000214820FFF778F940F23F114920FFF70D
:1012100073F900214A20FFF76FF900214B20FFF7F7
:101220006BF94FF46F414420FFF766F90021452028
:10123000FFF762F940F23F114620FFF75DF9002108
:101240004E20FFF759F900214F20FFF755F940F2E2
:10125000077100E04BE03020FFF74EF940F2022129
:101260003120FFF749F94FF401713220FFF744F9BB
:1012700040F202513320FFF73FF940F2075134208A
:10128000FFF73AF94FF401713520FFF735F94FF4C4
:1012900001713620FFF730F940F202513720FFF795
:1012A0002BF940F202313A20FFF726F940F20231E1
:1012B0003B20FFF721F900212320FFF71DF9002132
:1012C0002420FFF719F94FF400412520FFF714F906
:1012D0004FF4E0412620FFF70FF94BF2EB012020FD
:1012E000FFF70AF97C212720FFF706F955E445F2BC
:1012F000084084427ED108209549087041010120B0
:10130000FFF7FAF84FF4E0610220FFF7F5F841F239
:1013100030010320FFF7F0F800210420FFF7ECF87C
:1013200040F207210820FFF7E7F800210920FFF726
:10133000E3F800210A20FFF7DFF800210C20FFF777
:10134000DBF800210D20FFF7D7F800210F20FFF771
:10135000D3F83220FFF723F940F201110720FFF7FD
:10136000CBF83220FFF71BF941F2B0611020FFF7F4
:10137000C3F801211120FFF7BFF801211720FFF763
:10138000BBF84FF49C711220FFF7B6F84FF40061E0
:101390001320FFF7B1F809212920FFF7ADF8092143
:1013A0002A20FFF7A9F80021A420FFF7A5F80021C3
:1013B0005020FFF7A1F8EF215120FFF79DF8002101
:1013C0005220FFF799F840F23F115320FFF794F8AD
:1013D0004FF41C516020FFF78FF803216120FFF7C5
:1013E0008BF800216A20FFF787F800218020FFF7A3
:1013F00083F800E02AE000218120FFF77DF800213A
:101400008220FFF779F800218320FFF775F800218B
:101410008420FFF771F800218520FFF76DF8132174
:101420009020FFF769F800219220FFF765F803216B
:101430009320FFF761F84FF488719520FFF75CF86F
:1014400040F273110720FFF757F83DE444F23150A2
:1014500084427FD107203E49087001210020FFF718
:101460004BF84FF4C5611020FFF746F80621122013
:10147000FFF742F840F632211320FFF73DF84021F4
:101480001120FFF739F850211520FFF735F8162104
:101490001220FFF731F83220FFF781F845F2606142
:1014A0001020FFF729F83220FFF779F842F64E2195
:1014B0001320FFF721F84FF480710120FFF71CF88B
:1014C0004FF440710220FFF717F841F2300103207A
:1014D000FFF712F840F202210820FFF70DF8002173
:1014E0000A20FFF709F800213020FFF705F840F245
:1014F00002413120FFF700F84FF483713220FEF7EC
:10150000FBFF4FF4E0613320FEF7F6FF4FF48271EA
:101510003420FEF7F1FF40F201313520FEF7ECFFF9
:1015200040F207713620FEF7E7FF40F20531372021
:10153000FEF7E2FF4FF402713820FEF7DDFF40F6C0
:101540000B713920FEF7D8FF3220FFF728F802E0B0
:10155000040000102FE002214120FEF7CDFF4FF4E0
:101560001C516020FEF7C8FF01216120FEF7C4FF77
:1015700040F219119020FEF7BFFF4FF485719220C1
:10158000FEF7BAFF04219320FEF7B6FF4FF48071F7
:10159000A020FEF7B1FF3220FFF701F840F233112F
:1015A0000720FEF7A9FF3220FEF7F9FF0021A02057
:1015B000FEF7A2FF8EE444F2355084427ED10D2026
:1015C000FE49087030211520FEF796FF10219A2061
:1015D000FEF792FF20211120FEF78EFF43F22841F3
:1015E0001020FEF789FF02211220FEF785FF41F24D
:1015F00038011320FEF780FF2820FEF7D0FF1221CC
:101600000846FEF779FF2820FEF7C9FF43F2204184
:101610001020FEF771FF43F245011320FEF76CFF27
:101620004620FEF7BCFF00213020FEF765FF40F2A8
:1016300002413120FEF760FF40F207313220FEF711
:101640005BFF4FF441713320FEF756FF0421342035
:10165000FEF752FF40F201413520FEF74DFF40F208
:1016600007713620FEF748FF40F205313720FEF7BC
:1016700043FF4FF4C2613820FEF73EFF4FF4C261D2
:101680003920FEF739FF4FF480710120FEF734FF57
:101690004FF440710220FEF72FFF41F2300103208A
:1016A000FEF72AFF40F608010820FEF725FF082173
:1016B0000A20FEF721FF4FF41C5100E034E06020C7
:1016C000FEF71AFF01216120FEF716FF4FF49F710C
:1016D0009020FEF711FF4FF480719220FEF70CFF6F
:1016E0004FF480719320FEF707FF4FF44051A02084
:1016F000FEF702FF1021A320FEF7FEFE01210720C6
:10170000FEF7FAFE21210720FEF7F6FE232107202F
:10171000FEF7F2FE33210720FEF7EEFE40F2331112
:101720000720FEF7E9FEE4E3472C7DD10B20A34917
:1017300008700021EA20FEF7DFFE2021EB20FEF7F3
:10174000DBFE0C21EC20FEF7D7FEC421ED20FEF7D6
:10175000D3FE4021E820FEF7CFFE3821E920FEF736
:10176000CBFE0121F120FEF7C7FE1021F220FEF78B
:10177000C3FEA3212720FEF7BFFE01214020FEF774
:10178000BBFE00214120FEF7B7FE00214220FEF7FC
:10179000B3FE10214320FEF7AFFE0E214420FEF7DA
:1017A000ABFE24214520FEF7A7FE04214620FEF7CC
:1017B000A3FE50214720FEF79FFE02214820FEF79E
:1017C0009BFE13214920FEF797FE19214A20FEF7C0
:1017D00093FE19214B20FEF78FFE16214C20FEF7B9
:1017E0008BFE1B215020FEF787FE31215120FEF792
:1017F00083FE2F215220FEF77FFE3F215320FEF76C
:101800007BFE3F215420FEF777FE3E215520FEF758
:1018100073FE2F215620FEF76FFE7B215720FEF727
:101820006BFE0921582000E065E0FEF765FE062109
:101830005920FEF761FE06215A20FEF75DFE0C21BD
:101840005B20FEF759FE1D215C20FEF755FECC21E2
:101850005D20FEF751FE18211B20FEF74DFE0121F1
:101860001A20FEF749FE15212420FEF745FE5021DF
:101870002520FEF741FE8B212320FEF73DFE362179
:101880001820FEF739FE01211920FEF735FE002150
:101890000120FEF731FE88211F20FEF72DFE3220A9
:1018A000FEF77DFE80211F20FEF726FE3220FEF788
:1018B00076FE90211F20FEF71FFE3220FEF76FFEFE
:1018C000D0211F20FEF718FE3220FEF768FE05210A
:1018D0001720FEF711FE00213620FEF70DFE3821FD
:1018E0002820FEF709FE3220FEF759FE3C21282071
:1018F000FEF702FEFDE247F2837084427DD10620AE
:101900002E4908700121FF20FEF7F6FD0821F32083
:10191000FEF7F2FD4FF480710120FEF7EDFD4FF46C
:10192000E0610220FEF7E8FD41F230010320FEF7FE
:10193000E3FD40F202310820FEF7DEFD40F2072110
:101940000820FEF7D9FD00210920FEF7D5FD002172
:101950000A20FEF7D1FD00211020FEF7CDFD052164
:101960001120FEF7C9FD00211220FEF7C5FD002160
:101970001320FEF7C1FD3220FEF711FE41F2B02127
:101980001020FEF7B9FD3220FEF709FE07211120D5
:10199000FEF7B2FD3220FEF702FE8B211220FEF789
:1019A000ABFD3220FEF7FBFD4FF4B8511320FEF7DC
:1019B000A3FD3220FEF7F3FD222101E00400001018
:1019C0002920FEF799FD00213020FEF795FD40F219
:1019D00007713120FEF790FD40F205513220FEF7ED
:1019E0008BFD40F207113520FEF786FD08213620D9
:1019F000FEF782FD0021372000E040E0FEF77CFD8D
:101A000040F202213820FEF777FD4FF48371392030
:101A1000FEF772FD40F202213C20FEF76DFD4FF40F
:101A200081613D20FEF768FD3220FEF7B8FD002100
:101A30005020FEF761FDEF215120FEF75DFD0021F2
:101A40005220FEF759FD40F23F115320FEF754FD9E
:101A50004FF427416020FEF74FFD01216120FEF782
:101A60004BFD33219020FEF747FD0B212B20FEF785
:101A700043FD40F233110720FEF73EFD39E26720B7
:101A8000FEF744FD0446462C7DD10A20FE4908702D
:101A900094214620FEF730FD41214720FEF72CFD22
:101AA00000214820FEF728FD33214920FEF724FDC0
:101AB00023214A20FEF720FD45214B20FEF71CFD87
:101AC00044214C20FEF718FD77214D20FEF714FD30
:101AD00012214E20FEF710FDCC214F20FEF70CFD09
:101AE00046215020FEF708FD82215120FEF704FD1B
:101AF00000210220FEF700FD00210320FEF7FCFC80
:101B000001210420FEF7F8FC3F210520FEF7F4FC3C
:101B100000210620FEF7F0FC00210720FEF7ECFC78
:101B200000210820FEF7E8FCEF210920FEF7E4FC85
:101B300006210120FEF7E0FCC8211620FEF7DCFCA0
:101B400095212320FEF7D8FC95212420FEF7D4FC14
:101B5000FF212520FEF7D0FC02212720FEF7CCFC38
:101B600002212820FEF7C8FC02212920FEF7C4FC30
:101B700002212A20FEF7C0FC02212C20FEF7BCFC2B
:101B800002212D2000E090E0FEF7B6FC01213A2072
:101B9000FEF7B2FC01213B20FEF7AEFCF0213C2019
:101BA000FEF7AAFC00213D20FEF7A6FC0220FEF76E
:101BB000F6FC38213520FEF79FFC78213620FEF711
:101BC0009BFC38213E20FEF797FC0F214020FEF7BA
:101BD00093FCF0214120FEF78FFC49211920FEF7EC
:101BE0008BFC0F219320FEF787FC0120FEF7D7FC2A
:101BF00030212020FEF780FC07211D20FEF77CFC11
:101C000000211E20FEF778FC07211F20FEF774FC40
:101C10004D214420FEF770FC13214520FEF76CFC9B
:101C20000120FEF7BCFC04211C20FEF765FC02200D
:101C3000FEF7B5FC80214320FEF75EFC0520FEF791
:101C4000AEFC08211B20FEF757FC0420FEF7A7FC82
:101C500010211B20FEF750FC0420FEF7A0FC7F2182
:101C60009020FEF749FC04212620FEF745FC0420C5
:101C7000FEF795FC24212620FEF73EFC2C21262091
:101C8000FEF73AFC0420FEF78AFC3C212620FEF7F2
:101C900033FC02215720FEF72FFC00215520FEF7D0
:101CA0002BFC00215720FEF727FC472C7ED10C206F
:101CB0007549087008214220FEF71EFCB421462019
:101CC000FEF71AFC43214720FEF716FC132148209B
:101CD000FEF712FC47214920FEF70EFC14214A2092
:101CE000FEF70AFC36214B20FEF706FC03214C20B0
:101CF000FEF702FC46214D20FEF7FEFB05214E209B
:101D0000FEF7FAFB10214F20FEF7F6FB08215020CA
:101D1000FEF7F2FB0A215120FEF7EEFB0021022024
:101D2000FEF7EAFB00210320FEF7E6FB002104207A
:101D3000FEF7E2FBEF210520FEF7DEFB0021062087
:101D4000FEF7DAFB00210720FEF7D6FB0121082071
:101D5000FEF7D2FB3F210920FEF7CEFB0A20FEF75B
:101D60001EFC06210120FEF7C7FBC8211620FEF746
:101D7000C3FB95212320FEF7BFFB95212420FEF70E
:101D8000BBFBFF212520FEF7B7FB02212720FEF732
:101D9000B3FB02212820FEF7AFFB02212920FEF72A
:101DA000ABFB02212A20FEF7A7FB00E0A1E0022105
:101DB0002C20FEF7A1FB02212D20FEF79DFB012127
:101DC0003A20FEF799FB01213B20FEF795FBF0211D
:101DD0003C20FEF791FB00213D20FEF78DFB1420F7
:101DE000FEF7DDFB38213520FEF786FB7821362013
:101DF000FEF782FB38213E20FEF77EFB0F214020BC
:101E0000FEF77AFBF0214120FEF776FB0021382017
:101E1000FEF772FB49211920FEF76EFB0A21932081
:101E2000FEF76AFB0A20FEF7BAFB20210846FEF700
:101E300063FB03211D20FEF75FFB00211E20FEF740
:101E40005BFB09211F20FEF757FB53214420FEF7BF
:101E500053FB10214520FEF74FFB0A20FEF79FFBA6
:101E600004211C20FEF748FB1420FEF798FB80217C
:101E70004320FEF741FB0520FEF791FB0A211B20C2
:101E8000FEF73AFB282001E004000010FEF787FB74
:101E900012211B20FEF730FB2820FEF780FB7F215C
:101EA0009020FEF729FB04212620FEF725FB2820A1
:101EB000FEF775FB24212620FEF71EFB2C21262091
:101EC000FEF71AFB2820FEF76AFB08217020FEF7B8
:101ED00013FB3C212620FEF70FFB02215720FEF7C3
:101EE0000BFB00215520FEF707FB00215720FEF7D2
:101EF00003FB3220FEF753FB10BD70B50546F048DA
:101F000000780B2803D0EE4800780C2820D100215F
:101F10000220FEF7F1FA00210320FEF7EDFA00217E
:101F20000420FEF7E9FAEF210520FEF7E5FA00218B
:101F30000620FEF7E1FA00210720FEF7DDFA012175
:101F40000820FEF7D9FA3F210920FEF7D5FA03E071
:101F500000210846FEF7E4FA2220FEF71FFA0024CB
:101F600003E02846FEF75CFA641CB4F5963FF8D30C
:101F700070BD30B5014601F01F04C1F34513CA0A14
:101F8000E50205EB43151544A8B230BD2DE9F04735
:101F900004460D4629462046FEF7C2FA2220FEF7E7
:101FA000FDF9C7480078001F0A282BD2DFE800F0AF
:101FB000090805062A2A2A13120700BF00BF00BF1E
:101FC00000BFFEF76AFA0646FEF767FA0646304695
:101FD000BDE8F08700BFFEF760FA0646FEF75DFA3F
:101FE000C0F3C707FEF759FAC0F38708FEF755FAA2
:101FF000C0F3C709F80240EA481040EA090086B277
:102000003046E5E7FEF749FA0646FEF746FA064689
:102010003046FFF7AEFFDBE770B506460C461546C7
:10202000B6F5A07F01DAF02C00DB70BD214630460A
:10203000FEF776FA29462220FEF75EFA00BFF4E7A3
:102040002DE9F05F04460D4691469A46DDF828B02A
:102050004C4503DD0FFA89F7A146BCB2554503DDB7
:102060000FFA8AF7AA46BDB2A9EB04000FFA80F86E
:10207000AAEB050006B2B8F1000F0BD100BF5A461B
:1020800029462046FFF7C8FF681C85B2AA45F6DA44
:10209000BDE8F09F56B900BF5A4629462046FFF7D3
:1020A000BBFF601C84B2A145F6DAF1E7B04521DD43
:1020B000C8EB460007B215E05A4629462046FFF70E
:1020C000ABFF601C84B2002F08DD681C85B2700075
:1020D000022101FB1800384407B203E0022000FB94
:1020E000067007B24C45E7D15A4629462046FFF70D
:1020F00093FF20E0C6EB480007B215E05A46294698
:102100002046FFF789FF681C85B2002F08DD601CA0
:1021100084B27000022101FB1800384407B203E0CA
:10212000022000FB067007B25545E7D15A46294602
:102130002046FFF771FF00BFAAE72DE9FF5F0646C3
:102140000F4690469946DDF838B041466846FEF79E
:1021500005F900241FE01DF804A0002517E0C5F1D3
:1021600007004AFA00F000F0010038B13A1991B2C4
:10217000721990B24A46FFF74FFF06E03A1991B242
:10218000721990B25A46FFF747FF681C85B2082DB6
:10219000E5DB601C84B2102CDDDBBDE8FF9F2DE980
:1021A000F84305460E4614469846DDF8209000BFD9
:1021B00014F8017B43463A4631462846CDF8009054
:1021C000FFF7BBFFB5F59C7F03DA05F1080085B288
:1021D00008E0E02E04DA002506F1100086B201E0E6
:1021E0000025002620780028E2D1BDE8F8832DE9FB
:1021F000F04F89B006460F4691469A46DDF848B042
:102200004FF00008494601A800F05CF800242AE0DD
:1022100001A810F814804FF6FF7000EA082860004B
:10222000401C01A9085C40EA0808002517E0C5F138
:102230000F0048FA00F000F0010038B13A1991B2ED
:10224000721990B25246FFF7E7FE06E03A1991B2D2
:10225000721990B25A46FFF7DFFE681CC5B2102D06
:10226000E5DB601CC4B2102CD2DB09B0BDE8F08FF6
:102270002DE9F84305460E4614461F46DDF820803A
:1022800000BF2246641C3B4631462846CDF80080FC
:10229000FFF7ADFF641CB5F5987F03DA05F1100078
:1022A00085B208E0E02E04DA002506F1100086B2BF
:1022B00001E00025002620780028E2D1BDE8F8835F
:1022C000040000102DE9F04105460C462678677899
:1022D000A6F1B000C0EB001202EB401007EB40008B
:1022E000A138044A02EB40112022284601F064FF85
:1022F000BDE8F0817C6D020010B5002807DACA063F
:10230000140E294A00F00F031B1FD45403E0CA0621
:10231000130E264A135410BD25480068401C24495A
:102320000860704770B510F00DFC224800684FF44B
:102330007A71B0FBF1F4601EB0F1807F01D301200F
:102340000FE0601E4FF0E02148611F214FF0FF3089
:10235000FFF7D2FF00204FF0E021886107200861DD
:10236000002008B100BFFEE74FF0FF310846FFF73D
:10237000C3FF4FF0FF30002806DA0B4900F00F02D0
:10238000121F895CC91002E00849095CC9100D469A
:102390006D1E29464FF0FF30FFF7AEFF70BD10B540
:1023A00010F0D0FB012010BD18ED00E000E400E0CB
:1023B0000000001050070010704710B5FF200549BD
:1023C000087001F045FBFFF7ADFF00F06EF900204B
:1023D00010BD000040C009202DE9F04104462068EE
:1023E0001D2802D0262844D113E067680E21384604
:1023F00005F00FFD40F60401606811F08DFF0746FF
:10240000CD49384610F080FDCC49384610F0D2FD59
:1024100033E0A06811F0CBFF0646E568A6F60100A0
:1024200020B101280DD0022821D115E0012D02D0C4
:10243000022D04D102E000F098FB00E000BF00BFD5
:1024400015E0012D02D0022D04D102E000F082FD42
:1024500000E000BF00BF0AE0012D02D0022D04D130
:1024600002E000F02BFF00E000BF00BF00BF00BF94
:1024700003E0204611F0F0FD00BF00BFBDE8F08191
:102480007CB511F043FF0546002000902B46AC4A76
:1024900005210190AB4807F0C1FA0446012211461C
:1024A000204604F01BFF01221146204604F02AFFBB
:1024B00001221146204604F039FF20467CBD7CB540
:1024C000044620680F2820D10CF078F806460CF05E
:1024D00081F805466FF07F4009F0CBF8022009F043
:1024E00075F99648BF3098492B463246CDE9001021
:1024F0000021084607F096FE944809F0DDF8DE2238
:10250000782193A007F002FD00BF204611F0A4FD42
:1025100000BF00BF7CBD7CB511F0F8FE0546002071
:1025200000902B46864A05210190864807F076FAEE
:1025300004460121204605F029FC0121204605F032
:10254000F7FB01221146204604F0C8FE0122114685
:10255000204604F0D7FE01221146204604F0E6FE94
:1025600020467CBDFEB504460020009001900290FC
:1025700066682068012878D0A0F21310002875D171
:10258000002500BF08E0764A7649774801F06AFAEC
:1025900011F03EF9681C85B20A2DF4DB734800780F
:1025A0007149097888421AD06F4800786F490870DD
:1025B0006D48007880280BDD6B48007840426A49FE
:1025C00008706B4800680978401A6949086006E09D
:1025D00067480068644909780844654908606548A7
:1025E00000786049097888421AD05E4800786149CD
:1025F00008705C48007880280BDD5A48007840421B
:10260000584908705C4800680978401A5A490860BF
:1026100006E059480068534909780844564908605B
:1026200053480068002802DA0020514908605248E7
:102630000068002802DA00204F4908604C48006812
:10264000B0F5A07F03DD4FF4A070494908604A4807
:102650000068F02802DDF020474908604048007813
:10266000012804D14549086004E015E01BE0002082
:10267000424908603E48006800903F480068019069
:102680003E4800788DF80800684608F08DFE052168
:10269000E06812F06CFB06E0002305221946304684
:1026A00011F0EAFB00BF00BFFEBD1FB5042012F011
:1026B00059FC08F021F907F021F9314805F0E0FA5A
:1026C000304802F0F9FF304803F0DCF92F4804F0FD
:1026D00049F92F4805F0DAFA2E480AF033FE2E4861
:1026E0000EF00AFD2D480FF063FA2D480FF0D6FCCE
:1026F0002C480FF0D9FD2C4810F032F811F006FEEE
:1027000004462A4912F0ABFB11F000FE04460020FB
:102710002749CDE9004001231A46CDE902100146C0
:1027200011F0E8FB00F0CAFDFFF7AAFE02E064200A
:1027300007F0F8FAFBE70000E8E2050040808000BF
:10274000D92300007CBB05008080FF00D4ED05008C
:10275000416C692046616C6C6168203A2900000078
:1027600018000010150000101400001016000010D2
:1027700008000010170000100C00001010000010DE
:102780003CD10500A55300008959000045650000B3
:10279000757600003DD2000075100100F91A0100A5
:1027A000B91E01007D210100C9260100BF240000DF
:1027B000652500002DE9F041044620681D2802D05F
:1027C00026287DD1DCE06768F749384605F07AFABB
:1027D000002138460FF0C4FA082138460FF0C0FA3D
:1027E00040F60201606811F097FD07460E21384659
:1027F00010F0CBFB4FF40001384610F0DBFBEBA1EF
:10280000384610F098FBEE49384610F07DFB40F654
:102810000301606811F080FD0746EAA1384603F025
:1028200060F9EA48007800F0010018B1012138464B
:1028300003F036F940F60401606811F06DFD0746BB
:10284000E3A1384603F04DF9E048007800F00200BB
:1028500018B10121384603F023F940F605016068FC
:1028600011F05AFD0746DCA1384603F03AF9D74883
:10287000007800F0040018B10121384603F010F987
:1028800040F60601606811F047FD0746CF48007822
:1028900000F0080018B10121384603F001F940F6B4
:1028A0000701606811F038FD0746CDA1384603F0F6
:1028B00018F9C648007800F0100028B1012100E0A6
:1028C0004CE1384603F0ECF840F60801606811F07E
:1028D00023FD0746C4A1384603F003F9BB4800783E
:1028E00000F0200018B10121384603F0D9F840F675
:1028F0000901606811F010FD0746BDA1384603F0DC
:10290000F0F8B248007800F0400018B101213846D4
:1029100003F0C6F840F60A01606811F0FDFC0746B6
:10292000B5A1384603F0DDF8A848007800F0800033
:1029300018B10121384603F0B3F840F60B01606886
:1029400011F0EAFC07460E23ADA21E2138460AF01C
:10295000DDFA0E23ACA21E2138460AF0D7FA0E2368
:10296000ABA21E2138460AF0D1FA40F60C0160688D
:1029700011F0D2FC0746A7A1384610F0DCFAF1E0CE
:10298000A06811F014FD0646E568A6F601000B28C4
:1029900015D2DFE800F006E1152D455D758DA5BD6A
:1029A000D500012D06D0022D05D0032D04D0052D14
:1029B00004D102E002E001E000E000BF00BFCBE094
:1029C000012D04D0022D0FD0052D0FD10DE09A4816
:1029D000007880F001009849543981F854009648F5
:1029E00000787A49087001E000E000BF00BFB3E062
:1029F000012D04D0022D0FD0052D0FD10DE08E48F2
:102A0000007880F002008C49543981F854008A48DB
:102A100000786E49087001E000E000BF00BF9BE055
:102A2000012D04D0022D0FD0052D0FD10DE08248CD
:102A3000007880F004008049543981F854007E48C1
:102A400000786249087001E000E000BF00BF83E049
:102A5000012D04D0022D0FD0052D0FD10DE07648A9
:102A6000007880F008007449543981F854007248A5
:102A700000785649087001E000E000BF00BF6BE03D
:102A8000012D04D0022D0FD0052D0FD10DE06A4885
:102A9000007880F010006849543981F85400664885
:102AA00000784A49087001E000E000BF00BF53E031
:102AB000012D04D0022D0FD0052D0FD10DE05E4861
:102AC000007880F020005C49543981F854005A485D
:102AD00000783E49087001E000E000BF00BF3BE025
:102AE000012D04D0022D0FD0052D0FD10DE052483D
:102AF000007880F040005049543981F854004E4825
:102B000000783249087001E000E000BF00BF23E018
:102B1000012D04D0022D0FD0052D0FD10DE0464818
:102B2000007880F080004449543981F854004248CC
:102B300000782649087001E000E000BF00BF0BE00C
:102B4000012D04D0022D03D0032D03D101E001E0BB
:102B500000E000BF00BF00BF00BF03E0204611F04F
:102B60007BFA00BF00BFBDE8F0817CB511F0CEFB61
:102B70000546002000902B46304A0E210190304837
:102B800006F04CFF044601221146204604F0A6FB45
:102B900001221146204604F0B5FB012211462046D1
:102BA00004F0C4FB20467CBD60D90500696E20742A
:102BB0006865206E616D65206F6620474F44000098
:102BC0005CF805004C45442031000000190000105D
:102BD0004C454420320000004C45442033000000A6
:102BE0004C454420350000004C4544203600000090
:102BF0004C454420370000004C454420380000007C
:102C000046696C65000000004564697400000000BE
:102C10004E657700506C656173652053656C656324
:102C20007420736F6D65204C454473204368656361
:102C30006B426F780000000054C00920B5270000E7
:102C400008BC05002DE9F047044620681D2802D085
:102C500026287CD198E0D4F804900E21484605F04F
:102C6000D8F84FF40161606811F056FB8146D5A198
:102C7000484610F060F940F61101606811F04CFB15
:102C80008146D5A1484610F056F940F61201606819
:102C900011F042FB8146D4A1484603F0C3FAD4A107
:102CA000484603F0BFFAD4A1484603F0BBFAD4A1CA
:102CB000484603F0B7FA3C21484603F061FED2488B
:102CC000007801280AD140F61201606811F024FB57
:102CD0000746CE480178384603F073FE40F61301EC
:102CE000606811F019FB8146C94948460FF05BFD49
:102CF0004FF46132002148460FF0E0FDC2480078F1
:102D0000012805D1C348016848460FF015FE04E0CC
:102D10004FF4165148460FF00FFE40F61A01606856
:102D200011F0FAFA8146BCA1484610F004F9BE49F8
:102D3000484610F0E9F88021484610F03BF90021A0
:102D4000484610F022F940F61B01606800E0FAE006
:102D500011F0E2FA8146B5A1484602F0E2FC40F6E5
:102D60001C01606811F0D8FA8146B5A1484604F00C
:102D7000A3F940F61D01606811F0CEFA8146B5A1B5
:102D800048460EF053F8E2E0A06811F010FB06464A
:102D9000E568A6F612000F281ED2DFE800F0081E34
:102DA000375BD2D2D2D2D264717DD289A000012DFC
:102DB00004D0022D03D0042D0DD101E00BE00AE078
:102DC00040F61201606811F0A7FA074603F066FDAD
:102DD0008E49087000BF00BFB3E0012D06D0022D60
:102DE00005D0032D04D0052D0ED102E00CE00BE040
:102DF0000AE040F61301606811F08EFA07460FF002
:102E000097FC8449086000BF00BF9AE0012D02D002
:102E1000022D1DD11BE001207B490870012290A1E9
:102E200091A008F071FA7B480168934800F086FD94
:102E30007648007841B2904800F078FD7548036804
:102E4000724802788DA18C4800F080FD00E000BF40
:102E500000BF76E0012D02D0022D02D100E000E09B
:102E600000BF00BF6DE0012D02D0022D06D104E0AD
:102E70008AA1814820F026FB00E000BF00BF60E08F
:102E8000012D04D0022D03D0052D03D101E001E076
:102E900000E000BF00BF54E0012D04D0022D03D09C
:102EA000052D03D101E001E000E000BF00BF48E0D4
:102EB000012D02D0022D10D10EE040F61C016068F9
:102EC00011F02AFA07466422774903F079FF764920
:102ED000694820F0F7FA00E000BF00BF31E0012DA3
:102EE00002D0022D2BD129E001225DA16FA008F0B4
:102EF0000BFA614820F0F4FA07464FF0000800BFD3
:102F00000CE0744800F808705B4820F0E9FA0746C6
:102F10003946594820F003FB08F101080D2FF0D184
:102F200000206C4901F8080040F61D01606811F0AE
:102F3000F3F9824667490DF079FF00E000BF00BF5A
:102F400000BF00BF03E0204611F086F800BF00BFBD
:102F5000BDE8F0877CB511F0D9F905460020009056
:102F60002B465D4A0E2101905C4806F057FD044651
:102F70000121204604F00AFF0121204604F0D8FE7A
:102F800001221146204604F0A9F9012211462046EB
:102F900004F0B8F901221146204604F0C7F9204692
:102FA0007CBD70B5344C00254FF41656257194F94C
:102FB0000400032800DD04E02660204600F089FCC0
:102FC00000BF70BD4E756D626572206F6620554101
:102FD0005254203A0000000042617564205261742E
:102FE00065203A2000000000554152542030000076
:102FF00055415254203100005541525420320000B6
:103000005541525420330000240000101C000010D1
:103010003CD1050020000010576F726B2057697477
:103020006820554152540000D0C8050053656E64B5
:103030002048656C6C6F20576F726C642100000033
:10304000696E20746865206E616D65204F6620474B
:103050004F4400007265636976653A200000000005
:103060004D65737361676500636F6E6E6563742091
:103070005541525420000000640A001055617274DA
:10308000204E756D203A202569202D2042617564FF
:103090002072617465203A202569000048656C6CD7
:1030A0006F20576F726C6400740A00107761697446
:1030B00020666F72207265636569766520456E745F
:1030C0006572204B65792066726F6D2055415254B0
:1030D00020000000D80A0010452C000090BD05001B
:1030E0002DE9F04105460E46284600F0FBFF8046DC
:1030F000444606E0285D2E2802D10020285502E033
:10310000641E002CF6DC00BF0027022C0ADD02E062
:10311000285DF0557F1C601C0446285C0028F7D110
:10312000F05501E000203070BDE8F0812DE9F0415C
:1031300005460E46284600F0D5FF8046444604E08A
:10314000285D2E2800D102E0641E002CF8DC00BFB0
:103150000027022C0ADD02E0285DF0557F1C601C70
:103160000446285C0028F7D1F05501E000203070BB
:10317000BDE8F0812DE9F0410446206810B1012836
:1031800015D10EE004F12802C1A1C34800F044FEAD
:103190000020C249A1F80401BF4821F0A7FB064660
:1031A00005E0BE49BC4821F0A1FB064600BF00BFB8
:1031B000002E3CD1B94890F80601B9498969084008
:1031C00008B1012000E000206062002510E0B34853
:1031D00090F80601B24951F83510084020B1B048C6
:1031E00000EBC500077900E02D27AE4847556D1C60
:1031F000052DECD3A949AC4800F050FFAB49AA48D3
:10320000FFF76EFFA54890F8060100F0100010B916
:10321000A648206101E000202061A2486061A24828
:10322000E0609E48D0F80001E06100202062304656
:10323000BDE8F08110B500249D48006821F044FCF1
:103240000006C40C04F500444FF6C07020409949B4
:1032500008609748006800F050FE38B14FF4617084
:1032600006F060FD9248006800F070FE01204FF00B
:103270004021086010BD10B58D48006821F024FC85
:10328000C0B28D4908608A48006821F01DFCC0B2B8
:103290008949096841EA0020874908600120874977
:1032A000086010BD70B505460E46002403E0285D99
:1032B00000F0A3FD641CB442F9DB70BD2DE9F04FB2
:1032C000DBB04FF4967110A801F059F87CA00068AB
:1032D0000E900EA80D907BA021F006FC042011F0AA
:1032E00041FE6FF07F4011F04FFE774804F0C8FCBC
:1032F000022004F0DFFC0BF061F91FFA80F90BF0FB
:1033000069F980B20F9071485A9062A01290012022
:1033100002F0BCFE10F0FAFF044610A800216CA2D7
:10332000CDE90312CDE9051001210DAA0F980F3840
:10333000A9F10A03CDE9012100900F220A212046BC
:1033400002F0D6FC8046404607F0E2F800F0FF0AA3
:10335000BAF1000F38D160491AA8FFF7E7FE032140
:103360005D48FFF79FFF03225CA15B4800F0D9FE98
:1033700058BB5BA11AA800F044FE0C90002500BFCA
:103380000C9821F0A1FB00F0FF0B6D1C0BF101006C
:103390000028F5D10C9800F0D9FD2F46384600F0F2
:1033A000D6FC0446002604E00C9821F08DFBA055C5
:1033B000761CAE42F8D30C9800F04AFE204600F08E
:1033C000CCF8204600F0F2FC5DE0032245A1424823
:1033D00000F0A7FE002856D141A11AA800F011FE66
:1033E000334908604048406840F400103E49486056
:1033F0002F482C21026801A800F083FD2C480068AA
:1034000021F062FB9DF81C009DF81D1040EA012090
:103410009DF81E1040EA01409DF81F1040EA01642B
:103420009DF814009DF8151040EA01209DF8161033
:1034300040EA01409DF8171040EA01602B490860FE
:10344000684600F0C1F80546C01705EB9070801083
:10345000B0FBF4F0401E4FF040218861032048612A
:103460000120486000BF012181404209920002F121
:10347000E022C2F8001100BF4FF47A70B4FBF0F004
:103480001B49087000BF40465BB0BDE8F08F0000EC
:1034900025732A2E2A000000740C00103C0B00102B
:1034A00028000010610000104C0C00105C0000109F
:1034B0005400001000C008405800001000000940EF
:1034C0004D3A00004D3000002C0806007531000018
:1034D00046696C65000000006700001054585400F5
:1034E000720000007761760000C0024050000010BA
:1034F00054C009202DE9F041044620681D2802D05F
:10350000262823D10CE040F60501606810F004FF86
:10351000054628A128460DF089FC2848056019E0D9
:10352000A06810F044FF0646E768A6F6050058B903
:10353000012F04D0022F03D0052F03D101E001E0B9
:1035400000E000BF00BF00BF00BF03E0204610F056
:1035500083FD00BF00BFBDE8F0817CB5044610F0DC
:10356000D5FE0646002000903346154A0221019000
:10357000144806F053FA05460121284604F006FCDB
:103580000121284604F0D4FB01221146284603F00D
:10359000A5FE01221146284603F0B4FE0122114681
:1035A000284603F0C3FE2146044800680DF03EFCA7
:1035B00028467CBD54455854000000006C000010A3
:1035C000F534000018BF0500F0B506460C4F396809
:1035D000C1F30E077A1CC1F307477B1C02EB4207BD
:1035E000FF0097FBF3F4064F883FD7F804717D1C6A
:1035F00094FBF5F7DFF80CC007FB0CF0F0BD000002
:1036000088C00F4040420F00F0B503460020002460
:1036100000250BB1102904D93026167000265670EB
:10362000F0BD0AE0B3FBF1F601FB16362E4FBE5D8E
:103630002E4F3E54401CB3FBF1F3002BF2D1054654
:10364000401E002404E0294E365C1655401E641CC2
:10365000AC42F8DB0026165500BFE1E770B5044622
:103660000E461546102E00D970BD002C03DA2D2011
:1036700005F8010B64422A4631462046FFF7C4FF95
:1036800000BFF1E710B50246104600BF11F8014B2C
:1036900002F8014B002CF9D110BD0146002000BFFB
:1036A0000246401C8A5C002AFAD1704730B50C46AD
:1036B000034604E014F8015B03F8015B521E002A84
:1036C000F8D130BD10B5034601E0521E9954002ACE
:1036D000FBD110BD10B5034602E023F8021B521EB9
:1036E000002AFAD110BD000070000010A60C0010D6
:1036F000D0490968D04AC2F8A8111146D1F8C410BF
:1037000041F00801CC4AC43211608321CB4A1173C5
:10371000017B1170002111711146097B21F080019C
:10372000117307211172C649096841F05001C44A5A
:1037300011607047BF490968BF4AC2F8A811114615
:10374000D1F8C41041F01001BB4AC432116083218A
:10375000BC4A1173017B1170002111711146097B64
:1037600021F08001117307211172B549096841F0F8
:103770008041B34A11601146096841F001011160AE
:103780007047AC490968AC4AC2F8A8111146D1F893
:10379000C41041F08071A84AC43211608321AA4A42
:1037A0001173017B1170002111711146097B21F009
:1037B0008001117307211172A149096841F4A00128
:1037C0009F4A116070479B4909689B4AC2F8A8113B
:1037D0001146D1F8C41041F00071974AC43211600B
:1037E00083219A4A1173017B1170002111711146D6
:1037F000097B21F08001117307211172904909683A
:1038000041F00A018E4A11607047014600BF8B48A3
:10381000007D00F001000028F9D08848007870474A
:10382000014600BF8748007D00F001000028F9D064
:10383000844800787047014600BF8348007D00F04F
:1038400001000028F9D0804800787047014600BF89
:103850007E48007D00F001000028F9D07B48007808
:10386000704700BF754A127D02F02002002AF9D08D
:10387000724A11708022714B30331A70704700BF4A
:10388000704A127D02F02002002AF9D06D4A1170B0
:1038900080226C4B30331A70704700BF6A4A127D29
:1038A00002F02002002AF9D0674A11708022664B8C
:1038B00030331A70704700BF644A127D02F0200254
:1038C000002AF9D0614A11708022604B30331A709F
:1038D0007047F8B5044625686846FFF775FE06464A
:1038E000C01706EB90708010A0602901A06890FBC3
:1038F000F1F0E06000BF207918B92046FFF7F8FE2C
:1039000013E02079012803D12046FFF713FF0CE0D4
:103910002079022803D12046FFF733FF05E0207904
:10392000032802D12046FFF74EFFF8BD70B50446CC
:103930000D4625712046FFF7CCFF70BD70B50446DB
:103940000D4625602046FFF7C4FF70BD0FB4F0B5EB
:1039500091B00646179820B9002011B0F0BC5DF870
:1039600014FB18AD00245DE01798005D252851D1A7
:10397000601C1799085C692823D006DC582832D0CF
:10398000632807D0642841D11AE073280BD0782827
:103990003CD129E02D1D15F8047C394630461FF036
:1039A000BEFD641C34E02D1D55F8047C394601A889
:1039B000FFF768FE01A930461FF084FD641C27E074
:1039C00000BF2D1D55F8047C202109A800F0D7FC6C
:1039D00009AA0A213846FFF741FE09A930461FF01F
:1039E00071FD641C14E000BF2D1D55F8047C2021DE
:1039F00009A800F0C4FC09AA10213846FFF72EFEE2
:103A000009A930461FF05EFD641C01E00120A4E717
:103A100000BF05E01798015D30461FF080FD00BF34
:103A200000BF641C1798FFF738FEA0429CD82046C0
:103A300093E70000A8C10F4000C00F4000C0004045
:103A400000C00240000001400080094000C0094061
:103A500010B50FF015F90FF0B5FD10BD10B5FFF75B
:103A6000F7FF10BDF8B504460D4616462848007B02
:103A70002849085C0B2800D0F8BD254809F0BEFD98
:103A800068B16946224809F0D7FD9DF80100207011
:103A90009DF8020028709DF80000307000BF00BF44
:103AA000EAE77047704710B5ADF5027D04464FF464
:103AB000007001AB81AA0121009020460FF048FB65
:103AC00010B10DF5027D10BD1148047301AABDF8B7
:103AD000041209F0DFFC00B1F3E70D49087B012176
:103AE0000FF036FD00B1ECE7094809F045FE28B1BA
:103AF0000749087B00210FF02BFDE2E700BFE0E75C
:103B00000FF070FA00BFFEE77047014601207047D2
:103B1000800000105E0700103B48006840F4001071
:103B20003949C439C1F8C4003848006A40F400106B
:103B3000364908620846406B40F400104863344838
:103B4000C0683349C8603148006E40F080602F493A
:103B500008660846406F20F0806048672C48C068BF
:103B600020F440702A49C8600846C06840F440709C
:103B7000C8600846C06820F47030C8600846C06855
:103B800040F47030C8602048C438D0F8AC0120F44C
:103B900040601D49C439C1F8AC010846D0F8AC01F9
:103BA00040F480601849E8310860FA20194908613A
:103BB00007200860022048607047012803D10A21CD
:103BC000144A116102E0FA21124A1161704730B1C2
:103BD0000E49496B41F400110C4A516305E00B4951
:103BE000496B21F40011094A5163704701460948A5
:103BF000816000BF0748C06800F010000028F9D1BC
:103C000004488068C0B27047C4C00F4000C009209B
:103C100000C0024000800840704770B504460D4661
:103C200043A1204600F0FEFB10B948F2010070BD30
:103C300041A1204600F0F6FB10B948F20200F6E779
:103C40003FA1204600F0EEFB10B948F20300EEE77A
:103C5000294620461FF00AFDE9E710B50446B4F5F1
:103C6000004F01DD002010BD20461FF07BFCFAE76D
:103C70002DE9F04104460D4616461F46B4F5004FA7
:103C800003DD4FF0FF30BDE8F08132462946204683
:103C90001FF0CAFEF7E72DE9F04104460D4616462F
:103CA0001F46B4F5004F03DD4FF0FF30BDE8F08153
:103CB0003246294620461FF0EDFDF7E70146B1F5F3
:103CC000004F01DD012070470020FCE770B504467D
:103CD0000D46B4F5004F02DD4FF0FF3070BD2946B0
:103CE00020461FF02BFEF9E710B50446B4F5004F4F
:103CF00002DD4FF0FF3010BD20461FF071FCFAE7E7
:103D000010B50446B4F5004F01DD002010BD04EBF2
:103D1000840101EBC4010C4A02EB810000211FF079
:103D200063FDF3E7034601207047704700BFFEE7DD
:103D3000535444494E0000005354444F555400001E
:103D40005354444552520000C80C0010704770B5DF
:103D5000064600F0C1FB056806F10B0020F00704E1
:103D6000B4429CBF002070BD2B466A68BAB110688F
:103D7000A04210D304F1080188423CBF506858604B
:103D800007D35168101941601168091B0160586020
:103D90001460101D70BD13465268002AE7D12146F9
:103DA000284600F0A1FB0028DED170BD70B50446A6
:103DB000051F00F091FB0068002C14BF446870BD23
:103DC000002C18BFAC423CBF20466468F8D30168A1
:103DD0000A18AA4218BF456003D12A680546114453
:103DE000016028684119A1421CBF6C6070BD616808
:103DF000696021680844286070BD10B5044600F071
:103E000063FB0068005D000704D5DF2C02D0A4F13D
:103E1000200010BD204610BD0FB41CB5074B06AAEC
:103E20007B4469460090059800F0ADFB0020694690
:103E300000F0BCFB1CBC5DF814FB0000890700000F
:103E40002DE9F0410E460446002020622046E1683C
:103E5000884730B3252805D0D4E901219047206A4E
:103E6000401CF2E7E168204600278847050018D08B
:103E7000A5F14100192802D820354FF400673246D9
:103E8000294620462760FCF77FF940B1012804D07D
:103E9000F61D26F007060836D8E7361DD6E7284671
:103EA000DAE7206ABDE8F08170B50C460546012AC4
:103EB00005D02878800600D5EA69002302E00123B6
:103EC00005E05B1C934202D2E05C0028F9D1A869AE
:103ED000E618C01AA861286A184428622846AFF379
:103EE000008004E0D5E9012114F8010B9047B442A9
:103EF000F8D32846AFF3008070BD007B00F040008F
:103F000070472DE9F04117460D4604460646012943
:103F100013DD384620F0D8FD411C0CD0C0B20A2871
:103F200004F8010B02D06D1E012DF2DC0020207080
:103F30003046BDE8F081B44201D10020F9E73846AF
:103F400000F055FB0028F1D00026EFE710B504463D
:103F50000022114600F06CFC2046BDE8104000F045
:103F600040BB00002DE9F0410C46074616461046BE
:103F700000F06EF82078611C61280AD0722802D007
:103F800077283CD102E00125002405E00225042425
:103F900002E0082448F2020511F8010B2B2806D094
:103FA000622809D011F8010C74280AD00BE045F002
:103FB000030544F00204EFE745F0040544F0010472
:103FC000EAE744F0100438462146FFF726FE411C7C
:103FD00015D00021316171604FF40071F560F1611D
:103FE0007061200704D530460222002100F020FC39
:103FF000306D40F0010030653046BDE8F0810020B2
:10400000FBE72DE9F0410D460646104C206DC10737
:1040100004D0410804D020F00104F7E722460EE066
:104020005420FFF794FE07000ED0206D47F00101E9
:10403000084354212065384600F0A1F93A46294644
:104040003046BDE8F0418DE70020D6E77835001016
:104050002DE9F04704464FF000094FF0FF37C568DF
:10406000D4E90486A80707D0204600F091FC30462A
:10407000FFF7F3FD002802DA3846BDE8F08728058F
:1040800002D54046FFF792FE4C21204600F077F91A
:10409000206D20F0010020654846EEE740EA01036C
:1040A000024630B59B0710D14FF0013400E008C242
:1040B00008C91D1B9D4315EAC41FF8D013F0FF016A
:1040C00002F8011B0DD01B0AF8E711F8013B002B89
:1040D00002F8013B05D011F8013B002B02F8013B2F
:1040E000F3D130BD10B5431C02E010F8011B71B1D3
:1040F0008107FAD14FF0013202C88C1A8C4314EABE
:10410000C211F9D0C01A0A0603D0C01E10BDC01AD1
:1041100010BD0A0401D0801E10BD0902FCD0401E53
:1041200010BD40EA010370B59B072ED14FF0013658
:10413000042A2AD308C810C99D1B9D43121F15EAE3
:10414000C61517D0D8B2E1B2401A50EA056110D1B5
:1041500098B2A1B2401A50EA05410AD123F07F403B
:1041600024F07F41401A50EA052102D1180EA0EB3D
:10417000146070BDA342DBD018BA21BA884201D9BD
:10418000012070BD4FF0FF3070BD0AB9002070BD36
:1041900010F8013B11F8014B63B1A3420AD1521E42
:1041A00008D010F8013B11F8014B1BB1A34201D11B
:1041B000521EEDD1181B70BD032A40F2308010F062
:1041C000030C00F0158011F8013BBCF1020F6244B2
:1041D00098BF11F801CB00F8013B38BF11F8013B43
:1041E000A2F1040298BF00F801CB38BF00F8013BF0
:1041F00011F0030300F06780083AC0F0088051F81E
:10420000043B083A51F804CBA0E80810F5E7121D6A
:104210005CBF51F8043B40F8043BAFF30080D20789
:1042200024BF11F8013B11F801CB48BF11F8012B55
:1042300024BF00F8013B00F801CB48BF00F8012B78
:104240007047431A28BF9A427FF6B6AF032A10443C
:10425000114440F2268010F0030F1EBF11F8013DFB
:10426000521E00F8013D10F0030F7FF4F6AF11F07D
:10427000030300F0E483083AC0F00B8051F8043DDA
:10428000083A51F804CD40F8043D40F804CDFFF75A
:10429000F3BF121D5CBF51F8043D40F8043DAFF37D
:1042A0000080D20724BF11F8013D11F801CD48BFAD
:1042B00011F8012C24BF00F8013D00F801CD48BFE2
:1042C00000F8012C704710B5203AC0F00B80B1E81F
:1042D0001850203AA0E81850B1E81850A0E818503B
:1042E000BFF4F5AF5FEA027C24BFB1E81850A0E844
:1042F000185044BF18C918C0BDE810405FEA827C5E
:1043000024BF51F8043B40F8043B08BF7047D20774
:1043100028BF31F8023B48BF11F8012B28BF20F815
:10432000023B48BF00F8012B704702F0FF0343EA4D
:10433000032242EA024200F002B84FF000020429D0
:10434000C0F0128010F0030C00F01B80CCF1040CC4
:10435000BCF1020F18BF00F8012BA8BF20F8022BF8
:10436000A1EB0C0100F00DB85FEAC17C24BF00F89E
:10437000012B00F8012B48BF00F8012B70474FF0CC
:10438000000200B5134694469646203922BFA0E8A5
:104390000C50A0E80C50B1F12001BFF4F7AF0907B1
:1043A00028BFA0E80C5048BF0CC05DF804EB8900A2
:1043B00028BF40F8042B08BF704748BF20F8022BE5
:1043C00011F0804F18BF00F8012B704710B504465C
:1043D00010F0030F08BF11F0030F40F015804FF0ED
:1043E000013E121FC0F20E8051F8043BA3EB0E0CED
:1043F0002CEA030C1CEACE1C08BF40F8043BF0D0AA
:10440000A1F1040102F10402521E08DB11F8013B84
:10441000002B00F8013BF7D11146FFF78EFF204635
:1044200010BD00004FF0013C50F8042B51F8043B44
:104430009A4221D1A2EB0C03934313EACC1317D178
:1044400050F8042B51F8043B9A4215D1A2EB0C030F
:10445000934313EACC130BD150F8042B51F8043BCF
:104460009A4209D1A2EB0C03934313EACC13DBD09D
:104470004FF00000704700BFD01A01BAB1FA81F1C5
:1044800001F0180122FA01F0CB40C1F12001DBB2AA
:10449000C0B2C01A2CFA01F3D11A914311EAC31128
:1044A000E6D1704770B5064C7C44064D7D4403E070
:1044B000206820448047241DAC42F9D170BD000023
:1044C0004CF905004CF9050010B500F0E7FA001DA5
:1044D00010BD00BF8D220200004870477C360010DE
:1044E000704770477047704738B504460A46002049
:1044F000694600F0DEFB002808BF38BD024600997F
:10450000204600F0CFFA012038BD012000F0BEBBEC
:10451000F8B500F0C3FB054600200C46102000BF94
:104520000646A819A0420DD932466946002000F07F
:10453000C0FB070008BF00F0A9FB0098A04218BF0D
:104540000546C419FFF7C8FF05600746F01D20F0B7
:1045500007004619284600F00AF8B44208BFF8BD23
:10456000A21B31463868BDE8F84000F09BBA002134
:104570000160C0E9011070471020704701694A1CB2
:1045800002610878704700B58FB0CDE90131002194
:10459000059105497944CDE9031011466846FFF7B6
:1045A0004FFC0FB000BD0000E5FFFFFF0A6802F8F6
:1045B000010B0A60704710B5436913B1AFF3008077
:1045C00001E0FFF771FC012010BD127800F1240119
:1045D0000A7000224A700122EDE711684FF0FF32A5
:1045E000E9E7C16844F2C0029143C1607047007BB3
:1045F00000F08000704770B50D4601461446D36840
:1046000050692A46FFF747FB002807DA411C07D00C
:10461000E16820F0004041F48041E160281A70BD5B
:10462000204600F081F94FF0FF3070BDC1680022D4
:10463000026021F4805141F0400111F4C06FC1606B
:1046400001D08260704702694168891AC269891A7B
:10465000816070472DE9F0470446C06840F480004F
:10466000E060010312D520F40020E060810606D44A
:10467000E26A61688A4200D80A46511A216040F411
:104680000010E06094F82500BDE8F08720F40010E9
:10469000E060800602D5204600F09DF9E06842F215
:1046A00081014FF0FF390140012903D0204600F07D
:1046B0003BF9B6E02168002600290ADAC94340F434
:1046C00080502160C4E902606068411C616000782C
:1046D000DAE744F2400108420CD020F4A04040F058
:1046E00040002660E06021696068401AE169401A74
:1046F000A06096E0216991B9C00310D4E069FFF78A
:1047000026FB2061B0B1E06840F4006010F4407F07
:10471000E06002D140F48070E06020696060E06891
:10472000D4F814A0C1061AD5C0030ED5204600F057
:104730002FF914E004F1240020610120E061E06819
:1047400020F4407040F48060E6E721696068401A18
:10475000A16901445046FFF7B9FA0028A6DBE068DA
:10476000C0032AD56168E06A884200D808462169FA
:10477000451AE069471B1BD02046D4F8188000F08A
:1047800007F908EB05015046C4F81880FFF79EFAB8
:1047900000288BDBE06840F40030E060000202D5C6
:1047A000A0692844A061E1692069C91B45180DE092
:1047B000204600F0EDF8E769F5E725696168D4E97E
:1047C0000607491BE56208446560A061E06820F0C7
:1047D000100010F4C06FE06002D0204600F03AFAFA
:1047E000E06840F48050C4E90260000205D5206909
:1047F000E06260606FF0010046E7224639462846D5
:10480000FFF7F9FE411C0CD02918E16258B1401E97
:104810002060681C6060E06840F40030E060287848
:1048200032E7484630E765602046FFF7FFFEF8E7CD
:104830002DE9F041044616460D464769007B800786
:104840002ED03846FFF73AFA50BB3EB3012E02D0C5
:10485000022E25D104E0204600F03EF905441DE07B
:104860003846FFF74DFAE168002841F01001E16099
:1048700005DA204600F058F80120BDE8F081C903B0
:104880000BD56268E16A914200D81146A2691144D1
:104890002269891A814200DD08460544002D01DAAB
:1048A0000220EAE7E16A6068E268814206D2910389
:1048B000E06203D522F4003141F01002A66900271E
:1048C000AE4213DCE16A814201D90B4600E00346A7
:1048D00003EB060C2369ACEB030CAC4506DD81420F
:1048E00001D98C4600E084469C4505D1A76027602D
:1048F00042F02000A5620DE0AD1BE669AE1B8142CF
:10490000A66000D90846C01A281A206058196060AD
:1049100022F0200003490840E060002084F848703D
:10492000ABE70000BFCFD7FFC16821F4001141F011
:104930008001C16000218160016070472DE9F0476E
:10494000814614460E464FF0FF383248D568576905
:10495000054209D03846A169FFF7B8F9002811DBF4
:104960002C48C0430540E5602B4632464946384650
:10497000FFF77EF9A16920F00042B21A1144002825
:10498000A16103D02046FFF7CFFF4046BDE8F08786
:1049900070B504460569C06A6168884200D8084657
:1049A000E16821F42011E160C90312D5A84208D0C2
:1049B0002246411B2846FFF7C1FF10B14FF0FF30E0
:1049C00070BD0020E562C4E90150E06820F4803049
:1049D000E060002070BD10B50446C06820F02000E3
:1049E000E060A16AA06988420DD02046FFF7D0FFA1
:1049F000E06820F4405040F01000E060A06AA06140
:104A00002069E062606044F24001E0688843E06051
:104A100010BD000010000200431A28BF9A427FF622
:104A200052AC104410F0030F11441EBF11F8013DA9
:104A3000521E00F8013D10F0030F7FF4F6AF103A5C
:104A4000C0F00A8010B531E91850103A20E918502A
:104A5000BFF4F9AFBDE81040530724BF31E9081097
:104A600020E9081044BF51F8043D40F8043D12F01D
:104A7000030F08BF7047D20728BF31F8023D48BF77
:104A800011F8012C28BF20F8023D48BF00F8012C86
:104A900070470000004870477436001000487047A7
:104AA00094360010034640688C46002818BF8842A0
:104AB0003CBF03464068F8D318681844884207D0C2
:104AC0000CF1030020F00700001D411A521A0146A4
:104AD000081D0A60FFF76AB910B50146C268900761
:104AE00003D0900607D5886A0AE000F025F9012175
:104AF0000160881E10BD8B69486818440B69C01A94
:104B000091F848301BB191F84910401A10BD1103BB
:104B1000FCD50028FADD401E10BD000010B542484B
:104B20005421FFF72CFC41485421FFF728FC404852
:104B30005421FFF724FC3F493B483C4A3F4B086067
:104B40003D490A603A491960531C0365481C1065C9
:104B5000012008653B48344A39A17844FFF702FA3E
:104B600020B9384878440A3800F04AF937482F4AC3
:104B700035A17844FFF7F6F920B9344878440A386B
:104B800000F03EF932482A4A2FA17844FFF7EAF9AB
:104B900020B92F4878440A3800F032F940232248DF
:104BA000DC000021224600F0FDF820B125487844C1
:104BB000543800F025F91D4822464023002100F01A
:104BC000F1F820B121487844543800F019F9184818
:104BD00022461023002100F0E5F8002806D01C48EA
:104BE0007844BDE81040563800F00AB910BD1048AE
:104BF00070B5006D20F001040B48FFF729FA0B484F
:104C0000FFF726FA0A48FFF723FA09E0206D20F0A3
:104C100001052046FFF71CFA2046FFF7C7F82C468F
:104C2000002CF3D170BD000078350010CC35001099
:104C300020360010540A0010580A00105C0A0010B8
:104C4000720000002A740500770000001874050047
:104C50000774050070B5054640F202260A4C0FE0C5
:104C600094F85000C00708D0AC4206D0E06836EA9D
:104C7000000002D1204600F063F8206D20F001040E
:104C8000002CEDD170BD00007835001010B500F09B
:104C9000BFF8BDE8104000F0AEB80000124B694606
:104CA00000F580528A421A6001D811467047196097
:104CB000704730B50C4D6B46A3F580532C682244E9
:104CC0009A420FD89B1A02F5805003EBD37302EB84
:104CD0006303984200D91846C01D20F007020C60FB
:104CE000101B2A6030BD0000600A00107546FFF7F7
:104CF000D1FEAE4605006946534620F007008546C2
:104D000018B020B500F0BAF8BDE820404FF000061A
:104D10004FF000074FF000084FF0000B21F00701A3
:104D2000AC46ACE8C009ACE8C009ACE8C009ACE8E6
:104D3000C0098D4670470000004870477436001067
:104D400070B50446C068810713D0800601D5A56AF6
:104D500004E0A169606808442169451A2046FFF70C
:104D600017FE0022064629462046FFF761FD304621
:104D700070BD002070BD70B510B1BDE87040DFE7B8
:104D80000025074C6E1E07E02046FFF7D9FF00B153
:104D90003546206D20F00104002CF5D1284670BD69
:104DA0007835001070B5C468A50713D0650211D41A
:104DB000B2F5807F09D0B2F5007F06D0B2F5806FE2
:104DC00008D1012300F1240106E05D1E6FF07F464B
:104DD000B54201D3012070BD0161C361416024F47B
:104DE00070611143C160002070BD0446AFF30080C4
:104DF0002046FBF7EEF9002801D0FEF797BF704779
:104E000010B500F067F8BDE81040FFF7F4BF0000F0
:104E100010B5012805D0002103A000F041F80120C1
:104E200010BD09A1F8E7000053494752544D454DC4
:104E30003A204F7574206F662068656170206D653B
:104E40006D6F7279000000003A2048656170206D36
:104E5000656D6F727920636F72727570746564002E
:104E60000948804709480047FEE7FEE7FEE7FEE7FE
:104E7000FEE7FEE7FEE7FEE7FEE7FEE7044805493A
:104E8000054A064B70470000812C0100CD00000050
:104E9000D8760010D87F0010D8770010D87700108F
:104EA00070B505460C460A2000E06D1CFEF7B4FE06
:104EB00035B128780028F8D102E0641CFEF7ACFE7A
:104EC00014B120780028F8D1BDE870400A20FEF720
:104ED000A3BE000010B5014602A0FFF7E1FF0120CC
:104EE00010BD000053494752545245443A20526580
:104EF0006469726563743A2063616E2774206F7011
:104F0000656E3A2000000000002800DC4042704737
:104F1000014621F00F0070470146080B000370475F
:104F20002DE9F05F06460F4690461D46DDE90AABC7
:104F30000D9C0020206002E02068401C206020685A
:104F4000082807D2207808F03DFE007C00F0010020
:104F50000028F1D12068082802D31620BDE8F09F70
:104F6000207808F02FFE81462021FFF708FA2078EC
:104F700008F028FE00F11009006920F00100401C33
:104F8000C9F80000207808F01DFE8146006866F32D
:104F90000600C9F80000207808F014FE8146006879
:104FA00068F3CA10C9F80000207808F00BFE8146AB
:104FB0000DB9002105E0BAF1020F01D1012100E095
:104FC0000221D9F8000061F3CC20C9F80000207854
:104FD00008F0F8FD81460FB1012100E00021D9F869
:104FE000000061F34D30C9F80000207808F0EAFDB8
:104FF0008146006820F48040C9F80000207808F05D
:10500000E1FD8146012D01D1012100E00021D9F807
:10501000000061F3CF30C9F80000207808F0D2FD1D
:10502000814600686BF31A40C9F80000207808F048
:10503000C9FD00F110090C98D9F8001060F30F2198
:10504000C9F80010012D0AD000BF207800F014F834
:105050008146B9F1000F01D048467FE70AE000BF62
:10506000207800F063F88146B9F1000F01D048467E
:1050700074E700BF002071E770B50546002400E02A
:10508000641C0B2C07D2E0B208F0A4FD007C00F0F9
:1050900001000028F4D10B2C46D2E0B208F09AFDB2
:1050A00006462021FFF76BF9E0B208F093FD00F10E
:1050B000100601203060E0B208F08CFD8582E0B27D
:1050C00008F088FD0646006820F4802000F5802066
:1050D0003060E0B208F07EFD0646006820F07040C7
:1050E000A0F100503060284608F06CFD406848B1DF
:1050F000E0B208F06FFD0646284608F063FD406800
:10510000866007E0E0B208F065FD0646284608F034
:1051100059FD8660E0B208F05DFD0646284608F0BD
:1051200051FD4660002070BD1720FCE770B50546B4
:10513000002400E0641C042C08D2E0B208F084FDD6
:1051400090F8200000F001000028F3D1042C3CD29C
:10515000E0B208F079FD06464021FFF710F9E0B211
:1051600008F072FD00F1200601203060E0B208F086
:105170006BFD8584E0B208F067FD0646006820F00C
:105180007040A0F100503060284608F01BFD4068D8
:1051900048B1E0B208F058FD0646284608F012FD76
:1051A0004068866007E0E0B208F04EFD06462846FB
:1051B00008F008FD8660E0B208F046FD0646284685
:1051C00008F000FD4660002070BD1820FCE70000DC
:1051D00038B545680446014628460EF045FB0028D0
:1051E0002BD02068304A11280DD006DC0B2825D0A2
:1051F0000E2833D00F2852D112E0282849D0B0F51C
:10520000107F4CD108E09268002A16D0214628462B
:1052100001B0BDE830401047214628465268F7E704
:10522000284603F0E7FF0090406E0468684604F0EB
:105230004BF8002C01D02846A04738BD284603F083
:10524000D9FF0090683003F02BFF009803216C30E9
:1052500003F034FF684604F037F820E0E16848685E
:1052600009680D2902D0202913D105E0002810DD9E
:10527000284619F0D4F806E0002804DD2846BDE8E9
:10528000384019F0CCB82846BDE83840022119F062
:10529000DCB8E06818B90021284600F023FA20465F
:1052A000BDE838400EF0D8BE280100102DE9FF41BE
:1052B0000AAF97E87000002703958DE8D00000F052
:1052C00003F804B0BDE8F081F0B585B00DF1280C0D
:1052D0009CE8F0004FF0000C8DE8F01000F024F88E
:1052E00005B0F0BDF0B5044685B08069B4F908504A
:1052F000668A0027CDE90265CDE900170490B4F96C
:105300000C00B4F91060C118B4F90A00B4F90E50D9
:10531000104433462A4600F007F80546616800F05D
:1053200000FA05B02846F0BD2DE9F04F85B01F46C4
:10533000DDE911B4DDE90E5690468946824605F056
:105340002BFB16484C34CDE90204CDE900563B4610
:105350004246494650460EF0CDFD040018D003F0F9
:1053600049FF1022594604900EF0DEFC04983022CA
:105370000B493430FEF7A7FF094D04990C3D28680E
:10538000486604A803F0A0FF2868416820468847C3
:1053900006F0E6FC05B02046BDE8F08FD1510000D4
:1053A00034010010F0B5044680688B4989B051F88B
:1053B0002050606800287DD0052804D006287AD0C7
:1053C000122879D1AEE0E86900284FD095E80E00A8
:1053D0008DE80F0004F110010FC907F017F900263E
:1053E00055F8260006F045F9A169E8690A1A21690D
:1053F00001446069304404F051FFA169E8690A1A68
:1054000021690144E069801B04F048FFE169E86913
:105410000A1A616901442069304404F0F5FFE1692A
:10542000E8690A1A61690144A069801B04F0ECFF75
:10543000761C022ED4DBA86806F01BF9E069E96946
:105440006669431A206942183144801C521E05F0D7
:1054500071F8E169E869A2690B1A61690144101ADF
:10546000401C921E05F066F8EE6913E05FF000063E
:1054700055F8260006F0FDF8E069831BA069821B41
:10548000606981192069304404F07EFF761C022E89
:10549000EEDB0226D5E90301CDE900016169E0698F
:1054A00008444310A069891C821B2069304404F021
:1054B000B9FE02E089E012E08AE0D5E90501CDE914
:1054C0000001E36960690121184401EB6001A069F2
:1054D0009B1E821B2069304404F0A4FE78E0206803
:1054E00003F088FE0490206810F050FA40B1A068E4
:1054F00008B1002008E00498006F28B1012003E003
:105500000498406F00B10220049901EB8000C56E41
:1055100004A803F0D9FE00231A462846216804F0A7
:10552000C9FB55E0206803F065FE0490866EEEB37B
:10553000B0F95C70A168D1B3032942D05FF00001DB
:1055400000EB8101406D0C6C06F0B6F8204606F0C9
:1055500090F805A805F0B0F8BDF81410A88B014428
:10556000ADF81410BDF81810081AADF81800BDF801
:105570001600801CADF81600BDF81A00801EADF8AC
:105580001A000498B0F96020B0F95E1005A805F083
:10559000C2FE04A803F098FE022006F017F9304678
:1055A00003F028FE3A4605A9079001E00BE006E06B
:1055B00004F0C0FC0DF11C0003F086FE08E00121A0
:1055C000BEE70221BCE704A8F6E720680FF0B6FDAD
:1055D00009B00020F0BD0000C40806007CB50D46EF
:1055E00006004FF0000417D005F0D6F9304603F05E
:1055F00001FE0090032D0AD800EB8500C06E30B18B
:1056000003F0F8FD0190446801A803F05DFE6846D0
:1056100003F05AFE06F0A4FB20467CBD38B5050019
:105620004FF000040BD005F0B7F9284603F0E2FD77
:105630000090446D684603F047FE06F091FB20465B
:1056400038BD2DE9FC4115460E46040022D005F078
:10565000A3F9204603F0CEFD0190806E002798B19B
:1056600003F0C8FD0090FEF73DFD0446681E84422D
:1056700000DD0446224630460099FEF79DFD68464F
:1056800003F022FE375500E0377001A803F01CFE3E
:1056900006F066FBBDE8FC8170B516460C46054673
:1056A00019463046049A04F0C7FA024621462846B5
:1056B000BDE8704000F07BB8044A0349116004491A
:1056C0004A6A4862104670476401001028010010C1
:1056D0003401001000294FF0100101D00EF053B931
:1056E0000EF09AB84FF480720029114601D00EF0E6
:1056F0004AB90EF091B808B50023009300F001F804
:1057000008BD70B516460C46054619463046049A43
:1057100004F0B2FA024621462846BDE8704000F087
:1057200046B82DE9FF410E4605004FF0010421D097
:1057300005F032F9284603F05DFD0190876E01A85F
:10574000009703F0C1FD3146684607F079FA78B159
:1057500000980024B84208D0284603F04BFD019081
:105760000099816601A803F0AFFD28460FF074F997
:1057700006F0F6FA04B02046BDE8F081F8B515460B
:105780000C46060012D005F007F9304603F032FD52
:105790000090032C02D200EB84000564684603F0FD
:1057A00093FD30460FF058F906F0DAFAF8BDF8B577
:1057B00015460C46060018D005F0EEF8304603F00A
:1057C00019FD0090032C0BD200EB84006C3003F029
:1057D00067FC009800EB8400C56630460FF03CF98A
:1057E000684603F071FD06F0BBFAF8BDF8B54468F1
:1057F0000546014620460EF037F8002836D02868C6
:105800000B2839D00E2805D00F2821D0B0F5107FF5
:105810003CD12CE0204603F0EDFC009010F8746FB2
:105820004778684603F050FD204610F0AFF810B3FB
:10583000E8684168002929DD0068202826D17F1CFE
:10584000B7FBF6F006FB1071204600F029F91DE0C9
:105850002546204603F0CEFC0090006F04686846A1
:1058600003F032FD002C01D02846A047F8BD2946A0
:10587000204619F0C3FB09E0204603F0BBFC009072
:10588000783003F00DFC684603F01EFD2846BDE8A5
:10589000F8400EF0E1BBF0B585B0B0F90850468A8B
:1058A00084690296CDE903540027CDE90017B0F9C9
:1058B0000C10B0F91050B0F90E40B0F90A001944BC
:1058C00010442B46224600F003F805B0F0BD00005E
:1058D0002DE9F04F85B01D46DDE90E9716468A4644
:1058E0008346DDF8488005F057F8254C0EB135B1F8
:1058F0000AE020688068006880470646F7E720686D
:1059000080680068804705461D486FF07041001DA3
:10591000C068884201D147F0010708F15400194AD4
:10592000CDE90220CDE900972B4632465146584634
:105930000EF0E0FA05001CD003F05CFC102204908D
:1059400011990EF0F1F90E4904983C22091D3430EA
:10595000FEF7B9FC049821680167022180F87410F1
:105960000F21C16704A803F0AFFC206841682846F6
:10597000884706F0F5F905B02846BDE8F08F00002D
:1059800000080010ED5700002DE9FF4704460068AD
:1059900010B10FF0FBFF68B10022314850F822101F
:1059A00060680A2841D007DCF0B306280DD007282C
:1059B00054D106E00122F0E712280AD019284DD16F
:1059C00037E0204612F064FB48E0204613F09EFBCF
:1059D00044E0206803F00EFC0290B0F9548090F887
:1059E0005650476C466B02A803F06EFC206800F02E
:1059F00039F8814668460EF05BFCBDF8001009EBF3
:105A000005000844ADF80000246A304605F054FE55
:105A1000022005F0DBFE384605F02BFE42466946C3
:105A2000204604F087FA19E007E0204614F0B5F8A4
:105A300014E0886904B0BDE8F08720680FF07EFBB1
:105A4000206803F0D7FB0390B0F90610B0F90220EC
:105A5000891A491CC16703A803F036FC0020E9E756
:105A6000D408060038B5044604F096FF204603F03B
:105A7000C1FB0090C46F684603F026FC06F070F985
:105A8000204638BD044A034911600449CA69C86107
:105A900010467047F00100100008001004080010C4
:105AA00038B50C4605001BD004F076FF284603F0FD
:105AB000A1FB009090F87410A1420CD980F87540B9
:105AC000684603F001FC28460EF0C6FF0521284673
:105AD0000FF099F802E0684603F0F6FB06F040F993
