:020000040000FA
:10000000E8520010CD020000D5020000D702000027
:10001000D9020000DB020000DD0200000000000049
:10002000000000000000000000000000DF020000EF
:10003000E102000000000000E3020000692200006D
:10004000E7020000E7020000E7020000E70200000C
:10005000E7020000E7020000E7020000E7020000FC
:10006000E7020000E7020000E7020000E7020000EC
:10007000E7020000E7020000E7020000E7020000DC
:10008000E7020000E7020000E7020000E7020000CC
:10009000E7020000E7020000E7020000E7020000BC
:1000A000E7020000E7020000E7020000E7020000AC
:1000B000E7020000E7020000E7020000E70200009C
:1000C000E7020000E7020000E7020000DFF80CD0C2
:1000D00002F076FD00480047B1020000E85200102F
:1000E00000BF70470C48006870470B4A126811182F
:1000F00000BF094A12688A1A002AFADC70470020F9
:100100000549086070477047704770477047002086
:1001100070477047704770470000001010B54FF4EB
:100120008041034805F088FE802005F0B5FF10BD32
:10013000E40A001010B50446204600F0F1F810BDA6
:1001400010B50446204600F02DF910BD70B50446E8
:100150000D4603E0208800F025F9A41C2800A5F135
:100160000105F7D170BD70B504460D4603E000F0FF
:1001700056F92080A41C2800A5F10105F7D170BD17
:1001800070B505460C462846FFF7D4FF2046FFF71A
:10019000D7FF70BD10B500F0D3F900BF00BF10BD90
:1001A00010B5FFF7F7FF10BD10B5A0B014211BA8C4
:1001B00002F0CCFC682101A802F0C8FC00231A461A
:1001C0001E491F4806F0DCFA04464FF4A072F021E5
:1001D00000200AF053F84FF4A072F02100200AF03A
:1001E00063F806201D9046F67000ADF878001BA954
:1001F000204605F0ABFA1348099013480A901348BB
:100200000C9013481090134B134A01A9204605F097
:10021000BDFA20B010BD2DE9F04106460C46174648
:10022000012C04D1FFF7BCFF0020BDE8F0814FF0A6
:10023000FF3500BF00BF2846F7E70000DC88060056
:1002400040AD060035010000410100004D010000F5
:100250006701000029580000C157000070B505462D
:100260000C46A4F12000044A02EB0011102228469B
:1002700002F045FC70BD00008C9E01002DE9F041AC
:1002800005460C4626786778A6F1B000C0EB001250
:1002900002EB401007EB4000A138044A02EB40118A
:1002A0002022284602F02BFCBDE8F0817CA401004E
:1002B00010B5002004490862FF20086401F0DAFF4D
:1002C00002F04AFB002010BD00C00920064880470C
:1002D00006480047FEE7FEE7FEE7FEE7FEE7FEE72B
:1002E000FEE7FEE7FEE7FEE7A1240000CD000000E8
:1002F000002800DC4042704705F0C4BDFFFFFFFF4F
:10030000FE48006C40F43C50FC4908644FF47060B7
:100310008865704700BF0100A0F10100FBD1704764
:1003200070B504464FF48070F449C8654000C86554
:100330008000886500BF0846006840F4FF00086040
:100340000846006840F47F600860250A0846C069D6
:1003500040F4FF00C8610846806940EAC530886102
:10036000FFF7BEFEE5B2E548C06940F47F60E349AF
:10037000C8610846806940EA05108861FFF7B0FE51
:1003800000BF1920FFF7C6FF4FF48060DB49C86546
:100390000120FFF7BFFF4FF48060D84988658010C7
:1003A000886570BD70B504464FF48070D349C86548
:1003B0004000886500BF0846006840F4FF00086000
:1003C0000846006840F47F600860250A0846C06956
:1003D00040F4FF00C8610846806940EAC530886182
:1003E000FFF77EFEE5B2C548C06940F47F60C349AF
:1003F000C8610846806940EA05108861FFF770FE11
:1004000000BF4FF48060BD49C8650120FFF782FF3F
:100410004FF48060B94988658010886570BD2DE90A
:10042000F0414FF48070B549C865400088654000D0
:1004300088654000C86500BF0846006820F4FF00DA
:1004400008600846006820F47F6008603220FFF7EB
:1004500061FFAA484069C0F3C735A8484069C0F3A6
:10046000071747EA052600BF34464FF40060A3494A
:100470008865C01088652046BDE8F08170B50546E6
:100480000C462846FFF74CFF2046FFF78BFF70BD58
:1004900070B504462046FFF743FFFFF7C0FF05464F
:1004A000284670BD70B504460D4626462C4640F2DF
:1004B0003F10801B85B292480078001F0B2807D29E
:1004C000DFE800F00F1006060606191B1A062C00BE
:1004D00021462020FFF7D2FF29462120FFF7CEFF3B
:1004E0001DE000BF21464E20FFF7C8FF29464F20E0
:1004F000FFF7C4FF13E000BF00BF21120220FFF787
:10050000BDFF21460320FFF7B9FF29120620FFF7A0
:10051000B5FF29460720FFF7B1FF00E000BF00BF8D
:1005200070BD002109E0002201E0531C9AB240F2A4
:1005300075439A42F9DB4B1C99B28142F3DB704759
:1005400010B56E48006840F4FF006C49086008462A
:10055000006840F47F6008600846006C40F43C503E
:1005600008644FF43C5088650846C06D40F4005064
:10057000C8653220FFF7D5FF6048806D40F4005019
:100580005E498865FFF7BCFE6420FFF7CAFF0020C4
:10059000FFF77EFF044649F22530844202D0C01C9A
:1005A00084427DD10120564908701021E720FFF7D1
:1005B00065FF01210020FFF761FF4FF480710120EA
:1005C000FFF75CFF4FF4E0610220FFF757FF41F2B5
:1005D00030010320FFF752FF00210420FFF74EFFF8
:1005E00040F207210820FFF749FF00210920FFF70B
:1005F00045FF00210A20FFF741FF01210C20FFF7F2
:100600003DFF00210D20FFF739FF00210F20FFF7EC
:1006100035FF00211020FFF731FF07211120FFF7E0
:100620002DFF00211220FFF729FF00211320FFF7E3
:1006300025FF3220FFF775FF41F290511020FFF7A0
:100640001DFF40F227211120FFF718FF3220FFF78E
:1006500068FF9C211220FFF711FF3220FFF761FF96
:100660004FF4C8511320FFF709FF23212920FFF77A
:1006700005FF0E212B20FFF701FF3220FFF751FF6E
:1006800000212020FFF7FAFE00212120FFF7F6FECF
:100690003220FFF746FF07213020FFF7EFFE00E092
:1006A0008EE040F207713120FFF7E8FE062132208C
:1006B000FFF7E4FE40F204713520FFF7DFFE41F65C
:1006C00004713620FFF7DAFE04213720FFF7D6FE4B
:1006D00000213820FFF7D2FE40F206713920FFF7E3
:1006E000CDFE40F201713C20FFF7C8FE0F213D20F6
:1006F000FFF7C4FE3220FFF714FF03E000C009201B
:100700000400001000215020FFF7B8FEEF21512017
:10071000FFF7B4FE00215220FFF7B0FE40F23F1178
:100720005320FFF7ABFE4FF427416020FFF7A6FEF2
:1007300001216120FFF7A2FE00216A20FFF79EFE43
:1007400000218020FFF79AFE00218120FFF796FE0E
:1007500000218220FFF792FE00218320FFF78EFE0A
:1007600000218420FFF78AFE00218520FFF786FE06
:1007700010219020FFF782FE00219220FFF77EFEDD
:1007800003219320FFF77AFE4FF488719520FFF73D
:1007900075FE00219720FFF771FE00219820FFF7DA
:1007A0006DFE40F233110720FFF768FE0021202084
:1007B000FFF764FE00212120FFF760FE01F05BBB24
:1007C00049F22030844202D0B4F5134F7ED100208C
:1007D000FE49087000210846FFF750FE4FF4807173
:1007E0000120FFF74BFE4FF4E0610220FFF746FEC9
:1007F00041F218010320FFF741FE00210420FFF71A
:100800003DFE40F202210820FFF738FE00210920BA
:10081000FFF734FE00210A20FFF730FE01210C20F3
:10082000FFF72CFE00210D20FFF728FE00210F20EE
:10083000FFF724FE6420FFF774FE40F20111072049
:10084000FFF71CFE6420FFF76CFE4FF4865110206A
:10085000FFF714FE07211120FFF710FE4FF48871F7
:100860001220FFF70BFE4FF430611320FFF706FE56
:1008700000212920FFF702FE44F210012B20FFF790
:10088000FDFD00215020FFF7F9FDEF215120FFF77A
:10089000F5FD00215220FFF7F1FD40F23F115320FA
:1008A000FFF7ECFD4FF41C516020FFF7E7FD01213D
:1008B0006120FFF7E3FD00216A20FFF7DFFD002143
:1008C0008020FFF7DBFD0021812000E030E0FFF712
:1008D000D5FD00218220FFF7D1FD00218320FFF705
:1008E000CDFD00218420FFF7C9FD00218520FFF701
:1008F000C5FD10219020FFF7C1FD00219220FFF7D8
:10090000BDFD01219320FFF7B9FD4FF488719520BB
:10091000FFF7B4FD00219720FFF7B0FD00219820DC
:10092000FFF7ACFD40F273110720FFF7A7FD45E785
:1009300049F2313084427CD10320A449087041F24D
:100940001401E720FFF79AFD4FF480710120FFF7B3
:1009500095FD4FF400710220FFF790FD41F2300148
:100960000320FFF78BFD40F202210820FFF786FDF0
:1009700000210920FFF782FD00210A20FFF77EFDFC
:1009800000210C20FFF77AFD00210D20FFF776FDF6
:1009900000210F20FFF772FD00211020FFF76EFDF0
:1009A00007211120FFF76AFD00211220FFF766FDE5
:1009B00000211320FFF762FDC820FFF7B2FD41F2CE
:1009C00090611020FFF75AFD40F227211120FFF718
:1009D00055FD3220FFF7A5FD0C211220FFF74EFD3B
:1009E0003220FFF79EFD4FF400611320FFF746FD14
:1009F00011212920FFF742FD0B212B20FFF73EFD9F
:100A00003220FFF78EFD00212020FFF737FD002167
:100A10002120FFF733FD00213020FFF72FFD4FF499
:100A200083713120FFF72AFD00213220FFF726FDD8
:100A300000E075E04FF401713520FFF71FFD41F232
:100A40000A613620FFF71AFD40F207713720FFF7E1
:100A500015FD4FF483713820FFF710FD40F2077148
:100A60003920FFF70BFD40F202413C20FFF706FD65
:100A700040F60F413D20FFF701FD00215020FFF718
:100A8000FDFCEF215120FFF7F9FC00215220FFF778
:100A9000F5FC40F23F115320FFF7F0FC4FF41C51DE
:100AA0006020FFF7EBFC01216120FFF7E7FC00214C
:100AB0006A20FFF7E3FC00218020FFF7DFFC002124
:100AC0008120FFF7DBFC00218220FFF7D7FC00210B
:100AD0008320FFF7D3FC00218420FFF7CFFC002107
:100AE0008520FFF7CBFC10219020FFF7C7FC4FF4C7
:100AF000C0619220FFF7C2FC21210720FFF7BEFC56
:100B00003220FFF70EFD61210720FFF7B7FC3220EE
:100B1000FFF707FD40F233110720FFF7AFFC4DE66A
:100B200049F6191084427DD10E202849087006210B
:100B30002820FFF7A3FC01210020FFF79FFC0021E4
:100B40001020FFF79BFC47F2EF210120FFF796FCF6
:100B50004FF4C0610220FFF791FC46F638210320D4
:100B6000FFF78CFC46F674011120FFF787FC00218B
:100B70000F20FFF783FC45F208310B20FFF77EFCC6
:100B800003210C20FFF77AFC0A210D20FFF776FCE9
:100B90004FF438510E20FFF771FCBE211E20FFF7E5
:100BA0006DFC4FF400412520FFF768FC4FF4F04145
:100BB0002620FFF763FC78212720FFF75FFC002148
:100BC0004E20FFF75BFC00214F2001E004000010E5
:100BD000FFF754FC40F6D9011220FFF74FFC00212B
:100BE0003020FFF74BFC4FF482713120FFF746FCB9
:100BF0004FF480713220FFF741FC40F20531332081
:100C0000FFF73CFC40F205513420FFF737FC40F27F
:100C100005313520FFF732FC40F207713620FFF72F
:100C20002DFC00E013E04FF440713720FFF726FC65
:100C30004FF490513A20FFF721FC4FF400613B2024
:100C4000FFF71CFC33210720FFF718FCB6E541F243
:100C50000550844203D040F2055084427ED10920E1
:100C6000FE4908704FF40041E520FFF707FC012121
:100C70000020FFF703FC10212B20FFF7FFFB4FF4B0
:100C800080710120FFF7FAFB4FF4E0610220FFF7CB
:100C9000F5FB41F218010320FFF7F0FB00210420CF
:100CA000FFF7ECFB40F202210820FFF7E7FB0021F1
:100CB0000920FFF7E3FB00210A20FFF7DFFB0021FB
:100CC0000C20FFF7DBFB00210D20FFF7D7FB0021F5
:100CD0000F20FFF7D3FB00215020FFF7CFFBEF21C0
:100CE0005120FFF7CBFB00215220FFF7C7FB40F25A
:100CF0003F115320FFF7C2FB4FF41C516020FFF758
:100D0000BDFB01216120FFF7B9FB00216A20FFF73D
:100D1000B5FB00218020FFF7B1FB00218120FFF708
:100D2000ADFB00218220FFF7A9FB00218320FFF704
:100D3000A5FB00218420FFF7A1FB00218520FFF700
:100D40009DFB10219020FFF799FB00219220FFF7D7
:100D500095FB03219320FFF791FB00E07DE04FF42A
:100D600088719520FFF78AFB00219720FFF786FB0B
:100D700000219820FFF782FB00211020FFF77EFB67
:100D800000211120FFF77AFB00211220FFF776FBEC
:100D900000211320FFF772FB6420FFF7C2FB41F232
:100DA000B0711020FFF76AFB04211120FFF766FBEA
:100DB0003220FFF7B6FB4FF49F711220FFF75EFB66
:100DC0003220FFF7AEFB4FF4F8511320FFF756FB2C
:100DD0000F212920FFF752FB3220FFF7A2FB002151
:100DE0002020FFF74BFB00212120FFF747FB4FF4AA
:100DF00001713020FFF742FB01213120FFF73EFB5C
:100E000000213220FFF73AFB40F206213520FFF7A0
:100E100035FB4FF4C0613620FFF730FB4FF4A06183
:100E20003720FFF72BFB40F205513820FFF726FB58
:100E300040F207413920FFF721FB4FF4A0613C202D
:100E4000FFF71CFB40F203513D20FFF717FB40F278
:100E500073110720FFF712FBB0E448F689108442B3
:100E60007DD105207D49087001210020FFF706FB98
:100E70003220FFF756FB4AF6A4010320FFF7FEFAE3
:100E80003220FFF74EFB00210C20FFF7F7FA32204B
:100E9000FFF747FB40F60C010D20FFF7EFFA322079
:100EA000FFF73FFB4FF42C510E20FFF7E7FA3220FB
:100EB000FFF737FBB0211E20FFF7E0FA3220FFF7E3
:100EC00030FB42F63F310120FFF7D8FA3220FFF71E
:100ED00028FB4FF4C0610220FFF7D0FA3220FFF761
:100EE00020FB00211020FFF7C9FA3220FFF719FB81
:100EF00046F270011120FFF7C1FA3220FFF711FB13
:100F000000210520FFF7BAFA3220FFF70AFB002183
:100F10000620FFF7B3FA3220FFF703FB4EF61C71F1
:100F20001620FFF7ABFA3220FFF7FBFA0321172058
:100F3000FFF7A4FA3220FFF7F4FA40F2331107204A
:100F4000FFF79CFA3220FFF7ECFA00210B20FFF7A5
:100F500095FA3220FFF7E5FA00210F2000E0B8E013
:100F6000FFF78CFA3220FFF7DCFA00214120FFF76F
:100F700085FA3220FFF7D5FA00214220FFF77EFAEA
:100F80003220FFF7CEFA00214820FFF777FA32200F
:100F9000FFF7C7FA40F23F114920FFF76FFA3220FE
:100FA000FFF7BFFA00214A20FFF768FA3220FFF767
:100FB000B8FA00214B20FFF761FA3220FFF7B1FAAF
:100FC0004FF46F414420FFF759FA3220FFF7A9FA96
:100FD00000214520FFF752FA3220FFF7A2FA40F233
:100FE0003F114620FFF74AFA3220FFF79AFA40F203
:100FF00007713020FFF742FA3220FFF792FA4FF4E0
:1010000001713120FFF73AFA3220FFF78AFA4FF4E4
:1010100001713220FFF732FA3220FFF782FA40F2F4
:1010200002513320FFF72AFA3220FFF77AFA40F212
:1010300007513420FFF722FA3220FFF772FA4FF4FB
:1010400001713520FFF71AFA3220FFF76AFA4FF4E0
:1010500001713620FFF712FA322001E0040000107F
:10106000FFF75FFA40F202513720FFF707FA32200C
:10107000FFF757FA40F202313A20FFF7FFF932202A
:10108000FFF74FFA40F202313B20FFF7F7F9322029
:10109000FFF747FA00212320FFF7F0F93220FFF78E
:1010A00040FA00212420FFF7E9F93220FFF739FA4E
:1010B0004FF400412520FFF7E1F93220FFF731FA24
:1010C00000214F20FFF7DAF900214E20FFF7D6F973
:1010D0002DE448F6991084427ED10420FD49087021
:1010E00006212820FFF7CAF901210020FFF7C6F9E1
:1010F0004AF6A4610320FFF7C1F904210C20FFF791
:10110000BDF90C210D20FFF7B9F94FF420510E2045
:10111000FFF7B4F9B5211E20FFF7B0F943F63F31D0
:101120000120FFF7ABF94FF4C0610220FFF7A6F9E9
:1011300000211020FFF7A2F946F630011120FFF739
:101140009DF900210520FFF799F900210620FFF7FE
:1011500095F94EF61C711620FFF790F93321072000
:10116000FFF78CF900210B20FFF788F900210F20F1
:10117000FFF784F900214120FFF780F90021422088
:10118000FFF77CF900214820FFF778F940F23F1182
:101190004920FFF773F900214A20FFF76FF900217A
:1011A0004B20FFF76BF94FF46F414420FFF766F9CE
:1011B00000214520FFF762F940F23F114620FFF77A
:1011C0005DF900214E20FFF759F900214F20FFF76C
:1011D00055F940F2077100E04BE03020FFF74EF97F
:1011E00040F202213120FFF749F94FF4017132201A
:1011F000FFF744F940F202513320FFF73FF940F284
:1012000007513420FFF73AF94FF401713520FFF709
:1012100035F94FF401713620FFF730F940F20251F1
:101220003720FFF72BF940F202313A20FFF726F979
:1012300040F202313B20FFF721F900212320FFF784
:101240001DF900212420FFF719F94FF40041252052
:10125000FFF714F94FF4E0412620FFF70FF94BF2A6
:10126000EB012020FFF70AF97C212720FFF706F980
:1012700055E445F2084084427ED108209549087023
:1012800041010120FFF7FAF84FF4E0610220FFF777
:10129000F5F841F230010320FFF7F0F800210420B7
:1012A000FFF7ECF840F207210820FFF7E7F80021EC
:1012B0000920FFF7E3F800210A20FFF7DFF80021FB
:1012C0000C20FFF7DBF800210D20FFF7D7F80021F5
:1012D0000F20FFF7D3F83220FFF723F940F2011176
:1012E0000720FFF7CBF83220FFF71BF941F2B0617E
:1012F0001020FFF7C3F801211120FFF7BFF80121EB
:101300001720FFF7BBF84FF49C711220FFF7B6F8D7
:101310004FF400611320FFF7B1F809212920FFF7EE
:10132000ADF809212A20FFF7A9F80021A420FFF732
:10133000A5F800215020FFF7A1F8EF215120FFF779
:101340009DF800215220FFF799F840F23F115320F9
:10135000FFF794F84FF41C516020FFF78FF803213A
:101360006120FFF78BF800216A20FFF787F8002142
:101370008020FFF783F800E02AE000218120FFF7BA
:101380007DF800218220FFF779F800218320FFF704
:1013900075F800218420FFF771F800218520FFF700
:1013A0006DF813219020FFF769F800219220FFF7D4
:1013B00065F803219320FFF761F84FF488719520B9
:1013C000FFF75CF840F273110720FFF757F83DE490
:1013D00044F2315084427FD107203E4908700121F8
:1013E0000020FFF74BF84FF4C5611020FFF746F8D7
:1013F00006211220FFF742F840F632211320FFF7B2
:101400003DF840211120FFF739F850211520FFF752
:1014100035F816211220FFF731F83220FFF781F856
:1014200045F260611020FFF729F83220FFF779F8C4
:1014300042F64E211320FFF721F84FF4807101206E
:10144000FFF71CF84FF440710220FFF717F841F244
:1014500030010320FFF712F840F202210820FFF7C5
:101460000DF800210A20FFF709F800213020FFF7CE
:1014700005F840F202413120FFF700F84FF4837184
:101480003220FEF7FBFF4FF4E0613320FEF7F6FF5A
:101490004FF482713420FEF7F1FF40F20131352024
:1014A000FEF7ECFF40F207713620FEF7E7FF40F24F
:1014B00005313720FEF7E2FF4FF402713820FEF7C6
:1014C000DDFF40F60B713920FEF7D8FF3220FFF721
:1014D00028F802E0040000102FE002214120FEF76E
:1014E000CDFF4FF41C516020FEF7C8FF01216120A1
:1014F000FEF7C4FF40F219119020FEF7BFFF4FF432
:1015000085719220FEF7BAFF04219320FEF7B6FF03
:101510004FF48071A020FEF7B1FF3220FFF701F8F1
:1015200040F233110720FEF7A9FF3220FEF7F9FF42
:101530000021A020FEF7A2FF8EE444F23550844241
:101540007ED10D20FE49087030211520FEF796FF50
:1015500010219A20FEF792FF20211120FEF78EFF26
:1015600043F228411020FEF789FF02211220FEF7E6
:1015700085FF41F238011320FEF780FF2820FEF797
:10158000D0FF12210846FEF779FF2820FEF7C9FF99
:1015900043F220411020FEF771FF43F24501132072
:1015A000FEF76CFF4620FEF7BCFF00213020FEF75F
:1015B00065FF40F202413120FEF760FF40F2073143
:1015C0003220FEF75BFF4FF441713320FEF756FFE8
:1015D00004213420FEF752FF40F201413520FEF78E
:1015E0004DFF40F207713620FEF748FF40F205310B
:1015F0003720FEF743FF4FF4C2613820FEF73EFF6D
:101600004FF4C2613920FEF739FF4FF48071012099
:10161000FEF734FF4FF440710220FEF72FFF41F236
:1016200030010320FEF72AFF40F608010820FEF7EC
:1016300025FF08210A20FEF721FF4FF41C5100E08E
:1016400034E06020FEF71AFF01216120FEF716FF4B
:101650004FF49F719020FEF711FF4FF4807192209C
:10166000FEF70CFF4FF480719320FEF707FF4FF455
:101670004051A020FEF702FF1021A320FEF7FEFE3E
:1016800001210720FEF7FAFE21210720FEF7F6FED2
:1016900023210720FEF7F2FE33210720FEF7EEFE9E
:1016A00040F233110720FEF7E9FEE4E3472C7DD139
:1016B0000B20A34908700021EA20FEF7DFFE20215D
:1016C000EB20FEF7DBFE0C21EC20FEF7D7FEC42159
:1016D000ED20FEF7D3FE4021E820FEF7CFFE3821B3
:1016E000E920FEF7CBFE0121F120FEF7C7FE102115
:1016F000F220FEF7C3FEA3212720FEF7BFFE012143
:101700004020FEF7BBFE00214120FEF7B7FE00217E
:101710004220FEF7B3FE10214320FEF7AFFE0E215C
:101720004420FEF7ABFE24214520FEF7A7FE04214E
:101730004620FEF7A3FE50214720FEF79FFE022120
:101740004820FEF79BFE13214920FEF797FE192142
:101750004A20FEF793FE19214B20FEF78FFE16213B
:101760004C20FEF78BFE1B215020FEF787FE312117
:101770005120FEF783FE2F215220FEF77FFE3F21EE
:101780005320FEF77BFE3F215420FEF777FE3E21DB
:101790005520FEF773FE2F215620FEF76FFE7B21AA
:1017A0005720FEF76BFE0921582000E065E0FEF7A8
:1017B00065FE06215920FEF761FE06215A20FEF73C
:1017C0005DFE0C215B20FEF759FE1D215C20FEF71B
:1017D00055FECC215D20FEF751FE18211B20FEF79F
:1017E0004DFE01211A20FEF749FE15212420FEF7A7
:1017F00045FE50212520FEF741FE8B212320FEF7D8
:101800003DFE36211820FEF739FE01211920FEF792
:1018100035FE00210120FEF731FE88211F20FEF752
:101820002DFE3220FEF77DFE80211F20FEF726FED2
:101830003220FEF776FE90211F20FEF71FFE322099
:10184000FEF76FFED0211F20FEF718FE3220FEF7B4
:1018500068FE05211720FEF711FE00213620FEF755
:101860000DFE38212820FEF709FE3220FEF759FE32
:101870003C212820FEF702FEFDE247F283708442FD
:101880007DD106202E4908700121FF20FEF7F6FDCC
:101890000821F320FEF7F2FD4FF480710120FEF7DE
:1018A000EDFD4FF4E0610220FEF7E8FD41F230016A
:1018B0000320FEF7E3FD40F202310820FEF7DEFDD3
:1018C00040F207210820FEF7D9FD00210920FEF78C
:1018D000D5FD00210A20FEF7D1FD00211020FEF7E2
:1018E000CDFD05211120FEF7C9FD00211220FEF7D4
:1018F000C5FD00211320FEF7C1FD3220FEF711FEC9
:1019000041F2B0211020FEF7B9FD3220FEF709FEAA
:1019100007211120FEF7B2FD3220FEF702FE8B21D7
:101920001220FEF7ABFD3220FEF7FBFD4FF4B8515D
:101930001320FEF7A3FD3220FEF7F3FD222101E084
:10194000040000102920FEF799FD00213020FEF749
:1019500095FD40F207713120FEF790FD40F20551F0
:101960003220FEF78BFD40F207113520FEF786FD91
:1019700008213620FEF782FD0021372000E040E0FC
:10198000FEF77CFD40F202213820FEF777FD4FF490
:1019900083713920FEF772FD40F202213C20FEF7F0
:1019A0006DFD4FF481613D20FEF768FD3220FEF7AA
:1019B000B8FD00215020FEF761FDEF215120FEF718
:1019C0005DFD00215220FEF759FD40F23F115320EA
:1019D000FEF754FD4FF427416020FEF74FFD012133
:1019E0006120FEF74BFD33219020FEF747FD0B21D0
:1019F0002B20FEF743FD40F233110720FEF73EFD9A
:101A000039E26720FEF744FD0446462C7DD10A20CA
:101A1000FE49087094214620FEF730FD4121472001
:101A2000FEF72CFD00214820FEF728FD3321492038
:101A3000FEF724FD23214A20FEF720FD45214B20FF
:101A4000FEF71CFD44214C20FEF718FD77214D20A8
:101A5000FEF714FD12214E20FEF710FDCC214F2081
:101A6000FEF70CFD46215020FEF708FD8221512093
:101A7000FEF704FD00210220FEF700FD00210320F7
:101A8000FEF7FCFC01210420FEF7F8FC3F210520B5
:101A9000FEF7F4FC00210620FEF7F0FC00210720F1
:101AA000FEF7ECFC00210820FEF7E8FCEF210920FE
:101AB000FEF7E4FC06210120FEF7E0FCC821162019
:101AC000FEF7DCFC95212320FEF7D8FC952124208D
:101AD000FEF7D4FCFF212520FEF7D0FC02212720B1
:101AE000FEF7CCFC02212820FEF7C8FC02212920A9
:101AF000FEF7C4FC02212A20FEF7C0FC02212C20A4
:101B0000FEF7BCFC02212D2000E090E0FEF7B6FCC1
:101B100001213A20FEF7B2FC01213B20FEF7AEFC8A
:101B2000F0213C20FEF7AAFC00213D20FEF7A6FC98
:101B30000220FEF7F6FC38213520FEF79FFC7821C5
:101B40003620FEF79BFC38213E20FEF797FC0F2144
:101B50004020FEF793FCF0214120FEF78FFC492145
:101B60001920FEF78BFC0F219320FEF787FC012044
:101B7000FEF7D7FC30212020FEF780FC07211D2036
:101B8000FEF77CFC00211E20FEF778FC07211F20B9
:101B9000FEF774FC4D214420FEF770FC1321452014
:101BA000FEF76CFC0120FEF7BCFC04211C20FEF7B4
:101BB00065FC0220FEF7B5FC80214320FEF75EFCA9
:101BC0000520FEF7AEFC08211B20FEF757FC042081
:101BD000FEF7A7FC10211B20FEF750FC0420FEF7A7
:101BE000A0FC7F219020FEF749FC04212620FEF76F
:101BF00045FC0420FEF795FC24212620FEF73EFC40
:101C00002C212620FEF73AFC0420FEF78AFC3C211A
:101C10002620FEF733FC02215720FEF72FFC00217F
:101C20005520FEF72BFC00215720FEF727FC472C00
:101C30007ED10C207549087008214220FEF71EFC59
:101C4000B4214620FEF71AFC43214720FEF716FC7C
:101C500013214820FEF712FC47214920FEF70EFC15
:101C600014214A20FEF70AFC36214B20FEF706FC21
:101C700003214C20FEF702FC46214D20FEF7FEFB1F
:101C800005214E20FEF7FAFB10214F20FEF7F6FB50
:101C900008215020FEF7F2FB0A215120FEF7EEFB4F
:101CA00000210220FEF7EAFB00210320FEF7E6FBFD
:101CB00000210420FEF7E2FBEF210520FEF7DEFB0A
:101CC00000210620FEF7DAFB00210720FEF7D6FBF5
:101CD00001210820FEF7D2FB3F210920FEF7CEFBB1
:101CE0000A20FEF71EFC06210120FEF7C7FBC821D3
:101CF0001620FEF7C3FB95212320FEF7BFFB95219D
:101D00002420FEF7BBFBFF212520FEF7B7FB0221B5
:101D10002720FEF7B3FB02212820FEF7AFFB0221AC
:101D20002920FEF7ABFB02212A20FEF7A7FB00E0EB
:101D3000A1E002212C20FEF7A1FB02212D20FEF7BD
:101D40009DFB01213A20FEF799FB01213B20FEF784
:101D500095FBF0213C20FEF791FB00213D20FEF792
:101D60008DFB1420FEF7DDFB38213520FEF786FBC6
:101D700078213620FEF782FB38213E20FEF77EFBDD
:101D80000F214020FEF77AFBF0214120FEF776FB81
:101D900000213820FEF772FB49211920FEF76EFB67
:101DA0000A219320FEF76AFB0A20FEF7BAFB2021E6
:101DB0000846FEF763FB03211D20FEF75FFB0021B1
:101DC0001E20FEF75BFB09211F20FEF757FB532166
:101DD0004420FEF753FB10214520FEF74FFB0A205D
:101DE000FEF79FFB04211C20FEF748FB1420FEF7A2
:101DF00098FB80214320FEF741FB0520FEF791FB75
:101E00000A211B20FEF73AFB282001E00400001005
:101E1000FEF787FB12211B20FEF730FB2820FEF780
:101E200080FB7F219020FEF729FB04212620FEF76E
:101E300025FB2820FEF775FB24212620FEF71EFB3C
:101E40002C212620FEF71AFB2820FEF76AFB08212A
:101E50007020FEF713FB3C212620FEF70FFB02212A
:101E60005720FEF70BFB00215520FEF707FB002152
:101E70005720FEF703FB3220FEF753FB10BD70B571
:101E80000546F04800780B2803D0EE4800780C286F
:101E900020D100210220FEF7F1FA00210320FEF7F5
:101EA000EDFA00210420FEF7E9FAEF210520FEF704
:101EB000E5FA00210620FEF7E1FA00210720FEF7EF
:101EC000DDFA01210820FEF7D9FA3F210920FEF7AB
:101ED000D5FA03E000210846FEF7E4FA2220FEF7D7
:101EE0001FFA002403E02846FEF75CFA641CB4F5F0
:101EF000963FF8D370BD30B5014601F01F04C1F321
:101F00004513CA0AE50205EB43151544A8B230BDD6
:101F10002DE9F04704460D4629462046FEF7C2FA51
:101F20002220FEF7FDF9C7480078001F0A282BD2AF
:101F3000DFE800F0090805062A2A2A13120700BF65
:101F400000BF00BF00BFFEF76AFA0646FEF767FA59
:101F500006463046BDE8F08700BFFEF760FA064649
:101F6000FEF75DFAC0F3C707FEF759FAC0F387081A
:101F7000FEF755FAC0F3C709F80240EA481040EAF4
:101F8000090086B23046E5E7FEF749FA0646FEF755
:101F900046FA06463046FFF7AEFFDBE770B5064669
:101FA0000C461546B6F5A07F01DAF02C00DB70BDBB
:101FB00021463046FEF776FA29462220FEF75EFAE1
:101FC00000BFF4E72DE9F05F04460D4691469A46BE
:101FD000DDF828B04C4503DD0FFA89F7A146BCB205
:101FE000554503DD0FFA8AF7AA46BDB2A9EB0400F6
:101FF0000FFA80F8AAEB050006B2B8F1000F0BD17A
:1020000000BF5A4629462046FFF7C8FF681C85B224
:10201000AA45F6DABDE8F09F56B900BF5A462946F0
:102020002046FFF7BBFF601C84B2A145F6DAF1E75A
:10203000B04521DDC8EB460007B215E05A462946F7
:102040002046FFF7ABFF601C84B2002F08DD681C40
:1020500085B27000022101FB1800384407B203E08A
:10206000022000FB067007B24C45E7D15A462946CC
:102070002046FFF793FF20E0C6EB480007B215E0CB
:102080005A4629462046FFF789FF681C85B2002F73
:1020900008DD601C84B27000022101FB1800384486
:1020A00007B203E0022000FB067007B25545E7D1F6
:1020B0005A4629462046FFF771FF00BFAAE72DE9DF
:1020C000FF5F06460F4690469946DDF838B0414618
:1020D0006846FEF7C3F800241FE01DF804A00025A1
:1020E00017E0C5F107004AFA00F000F0010038B12E
:1020F0003A1991B2721990B24A46FFF74FFF06E0C3
:102100003A1991B2721990B25A46FFF747FF681C0C
:1021100085B2082DE5DB601C84B2102CDDDBBDE848
:10212000FF9F2DE9F84305460E4614469846DDF814
:10213000209000BF14F8017B43463A4631462846BA
:10214000CDF80090FFF7BBFFB5F59C7F03DA05F1F2
:10215000080085B208E0E02E04DA002506F1100040
:1021600086B201E00025002620780028E2D1BDE8F3
:10217000F8832DE9F04F89B006460F4691469A46FE
:10218000DDF848B04FF00008494601A8FEF776F8A0
:1021900000242AE001A810F814804FF6FF7000EA2E
:1021A00008286000401C01A9085C40EA08080025D6
:1021B00017E0C5F10F0048FA00F000F0010038B157
:1021C0003A1991B2721990B25246FFF7E7FE06E053
:1021D0003A1991B2721990B25A46FFF7DFFE681CA5
:1021E000C5B2102DE5DB601CC4B2102CD2DB09B0E7
:1021F000BDE8F08F2DE9F84305460E4614461F460C
:10220000DDF8208000BF2246641C3B46314628464C
:10221000CDF80080FFF7ADFF641CB5F5987F03DAB9
:1022200005F1100085B208E0E02E04DA002506F181
:10223000100086B201E00025002620780028E2D1B7
:10224000BDE8F8830400001010B5002807DACA06BC
:10225000140E294A00F00F031B1FD45403E0CA06D2
:10226000130E264A135410BD25480068401C24490B
:102270000860704770B500F047F8224800684FF4D6
:102280007A71B0FBF1F4601EB0F1807F01D30120C0
:102290000FE0601E4FF0E02148611F214FF0FF303A
:1022A000FFF7D2FF00204FF0E0218861072008618E
:1022B000002008B100BFFEE74FF0FF310846FFF7EE
:1022C000C3FF4FF0FF30002806DA0B4900F00F0281
:1022D000121F895CC91002E00849095CC9100D464B
:1022E0006D1E29464FF0FF30FFF7AEFF70BD10B5F1
:1022F00000F00AF8012010BD18ED00E000E400E055
:1023000000000010080000102DE9F047AE480068FA
:10231000C0F3016003287DD1AB488430006800F031
:10232000030030B1012830D0022859D003282BD126
:1023300000E000BFA4480068C0F30740441C02212D
:10234000A1488838D0F88800C0F30E00401CA1FBDB
:1023500000019E4B4FF0000CA0FB037901FB0391A1
:1023600000FB0C1122466346384600F097FB0546F9
:1023700095487C300068C0B2441C224600232846A1
:1023800000F08CFB9249086056E08F480068C0F36B
:102390000740441C02218C488838D0F88800C0F3DC
:1023A0000E00401CA1FB00108A4A4FF0000CA1FB5C
:1023B000027900FB029001FB0C012246634638467D
:1023C00000F06CFB054680487C300068C0B2441CBD
:1023D00022460023284600F061FB7D4908602BE07F
:1023E00079480068C0F30740441C022176488838C9
:1023F000D0F88800C0F30E00401CA1FB00124FF47F
:10240000FA400023A1FB007902FB009001FB0301CD
:10241000224600E011E0384600F040FB05466A48DD
:102420007C300068C0B2441C22460023284600F0DD
:1024300035FB6749086000BF30E0634884300068BE
:1024400000F0030030B1012810D0022819D0032871
:1024500023D100E000BF5C487C300068C0B2401C63
:102460005A49B1FBF0F05A49086016E056487C30F2
:102470000068C0B2401C5749B1FBF0F054490860F5
:102480000BE051487C300068C0B2401C4FF4FA4168
:10249000B1FBF0F04E49086000BF00BFBDE8F08717
:1024A00020204D49086000BF4B48006800F0400004
:1024B0000028F9D0032044497C31086000204249BB
:1024C0008839C1F8A80144490C31086001203E490F
:1024D0008431086041483C49091F0860AA203A49F4
:1024E000091D086055200860012037490839086037
:1024F000AA203549091D0860552033498839C1F89B
:102500008C0000BF3048006800F080600028F9D0DF
:1025100003202D4908390860AA202B498839C1F8C1
:102520008C0055202849091D086000BF2648006816
:1025300000F040700028F9D0232023491C310860A6
:10254000AA2021498839C1F8AC0055201E49243100
:10255000086001201C4918310860AA201A4924315A
:102560000860552018498839C1F8AC0000BF1648EA
:102570002030006800F480600028F8D00320124961
:1025800018310860AA2010498839C1F8AC005520DC
:102590000D492431086000BF0B482030006800F46A
:1025A00040700028F8D00E4807493C3108600020F0
:1025B00005498839C1F8C8010846006820F4704010
:1025C00040F480400860704788C00F4000093D001B
:1025D00008000010001BB700A0C10F4063000500F9
:1025E000DE8728042DE9F041044620680F2874D0C6
:1025F0001D2802D0262871D15CE067680821384682
:1026000009F07CFA40F6030160680AF0C7FF07464C
:10261000F3A1384601F0A1FD40F6050160680AF01B
:10262000BDFF0746F2A1384600F08AFFF2A1384606
:1026300000F086FFF2A1384600F082FF40F6090163
:1026400060680AF0ABFF07460022EFA1384609F0A8
:102650001DF90122EEA1384609F018F90222EEA177
:10266000384609F013F940F60D0160680AF096FF4C
:102670000746EBA1384600F0E2FE40F61301606821
:102680000AF08CFF0746E94938460AF0DFF9E849C5
:1026900038460AF007FA0E2138460AF0EEF940F6FD
:1026A000040160680AF07AFF07464821384608F0BE
:1026B0006DFE7BE0A0680AF0BCFF0646E56840F6C8
:1026C0000901701A8E4232D009DCA6F6010068B109
:1026D000022814D004285DD11DE05DE062E00428EA
:1026E00031D007283BD0092854D144E0012D02D035
:1026F000022D02D100E000E000BF00BF4AE0012D42
:1027000004D0022D03D0052D03D101E001E000E04B
:1027100000BF00BF3EE0012D04D0022D03D0042DE8
:1027200003D101E001E000E000BF00BF32E0012D75
:1027300004D0022D03D0052D03D101E001E000E01B
:1027400000BF00BF26E0012D04D0022D03D0052DCF
:1027500003D101E001E000E000BF00BF1AE0012D5D
:1027600004D0022D03D0052D03D101E001E000E0EB
:1027700000BF00BF0EE0012D06D0022D05D0032DB5
:1027800004D0052D04D102E002E001E000E000BF2A
:1027900000BF00BF00BF09E06C22BC21A54804F0C7
:1027A00059FA03E020460AF0B1FD00BF00BFBDE8C2
:1027B000F0817CB5044620680F2825D107F002FB84
:1027C000064607F00BFB05466FF07F4005F07DFCE9
:1027D000022005F02DFD4FF47F0097492B4632462D
:1027E000CDE900100021084604F0F2FA934805F004
:1027F00095FCDE22782192A004F05EF93022582167
:10280000924804F027FA00BF20460AF07FFD00BF7F
:1028100000BF7CBD7CB50AF0BBFE054600200090E1
:102820002B468B4A0A2101908A4803F02BFF04466D
:102830000121204602F082FA0121204602F050FADE
:1028400001221146204601F099FD01221146204641
:1028500001F0A8FD01221146204601F0B7FD2046F7
:102860007CBD3EB504460020009001900290656852
:102870002068012867D0A0F2131000286AD176489A
:10288000406B00F4000020B974480068401C734994
:1028900008607148406B00F0807020B97048006893
:1028A000401E6F4908606C48406B00F0806020B9A2
:1028B0006A480068401E694908606748406B00F03C
:1028C000006020B966480068401C6549086063489C
:1028D0000068002802DA002060490860604800684B
:1028E000002802DA00205E4908605C480068B0F504
:1028F000A07F03DD4FF4A070584908605848006875
:10290000F02802DDF020564908605348406B00F083
:10291000007018B901205349086002E000205149B5
:1029200008604E48006800904D48006801904D488E
:1029300000788DF80800684605F062FA0521E06825
:102940000BF031FB06E000230522194628460AF069
:10295000EDFB00BF00BF3EBD1FB504200BF01EFC09
:1029600004F048FD03F0FEFD3F4802F09FF93F48A8
:1029700000F06AFB3E4800F033FD3E4801F0C8F825
:102980003D4802F099F93D4806F0ACFF3C4808F09C
:10299000EFFC3C4808F06CFF3B4809F04DFA3B481F
:1029A00009F032FC3A4809F09BFE0AF0F1FD0446BA
:1029B00038490BF070FB0AF0EBFD04460020364965
:1029C000CDE9004001231A46CDE9021001460AF084
:1029D000EBFBFFF71FFF02E0642003F0B5FFFBE70E
:1029E000456C656374726F20323031340000000032
:1029F0004974656D203100004974656D2032000016
:102A00004974656D203300005465737420310000F3
:102A100054657374203200005465737420330000D1
:102A2000436865636B207465737400001CAD060019
:102A3000053DFA009087060000FFFF00289C060075
:102A4000416C69204465686768616E007C360600E9
:102A5000E5250000A487060000C009200C00001036
:102A600010000010140000103C910600112E000010
:102A7000E53200001D38000015470000A598000051
:102A8000EDB20000B1B7000055BC00009DC00000D1
:102A900079C60000B3270000632800002DE9F05F2D
:102AA0000546002092469B468846064681464024BD
:102AB0001BE0284641464746224600F071F853463F
:102AC0005A46C01A914110D311461846224600F0CA
:102AD00058F82D1A67EB01084F46224601200021C5
:102AE00000F04FF817EB00094E41201EA4F101043D
:102AF000DFDC484631462A464346BDE8F09F10B524
:102B0000431A934209D28318881803E010F8011D74
:102B100003F8011D521EF9D210BD40EA01039B07C4
:102B200003D009E008C9121F08C0042AFAD203E042
:102B300011F8013B00F8013B521EF9D210BDD2B290
:102B400001E000F8012B491EFBD270470022F6E796
:102B500010B513460A4604461946FFF7F0FF204613
:102B600010BD421C10F8011B0029FBD1801A7047D0
:102B7000034611F8012B00F8012B002AF9D1184661
:102B80007047202A04DB203A00FA02F10020704747
:102B90009140C2F1200320FA03F31943904070479B
:102BA000202A04DB203A21FA02F00021704721FAA2
:102BB00002F3D040C2F12002914008431946704709
:102BC000064C074D06E0E06840F0010394E807007A
:102BD00098471034AC42F6D3FDF77CFA44EC06007B
:102BE00064EC060070B58C1810F8015B15F0070353
:102BF00001D110F8013B2A1106D110F8012B03E096
:102C000010F8016B01F8016B5B1EF9D12B0705D49D
:102C10000023521E0DD401F8013BFAE710F8013BE6
:102C2000CB1A921C03E013F8015B01F8015B521E02
:102C3000F9D5A142D8D3002070BD000038B5456851
:102C400004460146284609F06BFF00282BD0206877
:102C5000304A11280DD006DC0B2825D00E2833D0A1
:102C60000F2852D112E0282849D0B0F5107F4CD15E
:102C700008E09268002A16D02146284601B0BDE837
:102C800030401047214628465268F7E7284603F0AF
:102C9000AFF90090406E0468684603F013FA002C08
:102CA00001D02846A04738BD284603F0A1F900907E
:102CB000683003F0F3F8009803216C3003F0FCF85F
:102CC000684603F0FFF920E0E168486809680D29CB
:102CD00002D0202913D105E0002810DD284612F08B
:102CE000E8FE06E0002804DD2846BDE8384012F082
:102CF000E0BE2846BDE83840022112F0F0BEE06890
:102D000018B90021284600F0B5F92046BDE8384042
:102D10000AF0FCBA100600102DE9FF410AAF97E84F
:102D20007000002703958DE8D00000F003F804B090
:102D3000BDE8F081F0B585B00DF1280C9CE8F000FD
:102D40004FF0000C8DE8F01000F024F805B0F0BD55
:102D5000F0B5044685B08069B4F90850668A00274A
:102D6000CDE90265CDE900170490B4F90C00B4F97F
:102D70001060C118B4F90A00B4F90E50104433467B
:102D80002A4600F007F80546616800F092F905B0A0
:102D90002846F0BD2DE9F04F85B01F46DDE911B49E
:102DA000DDE90E5690468946824604F073FB1648CC
:102DB0004C34CDE90204CDE900563B464246494633
:102DC00050460AF0F1F9040018D003F011F910226E
:102DD000594604900AF01AF9049830220B4934300D
:102DE000FFF78DFE094D04990C3D2868486604A83C
:102DF00003F068F9286841682046884705F0BAFC66
:102E000005B02046BDE8F08F3D2C00001C060010E8
:102E1000F0B5044680688B4989B051F8205060684D
:102E200000287DD0052804D006287AD0122879D130
:102E3000AEE0E86900284FD095E80E008DE80F005D
:102E400004F110010FC906F0BBF8002655F8260062
:102E500005F03BF9A169E8690A1A21690144606932
:102E6000304403F0F1FFA169E8690A1A21690144BD
:102E7000E069801B03F0E8FFE169E8690A1A61690B
:102E800001442069304404F095F8E169E8690A1AC0
:102E900061690144A069801B04F08CF8761C022E45
:102EA000D4DBA86805F011F9E069E9696669431A9D
:102EB000206942183144801C521E04F0FFF8E16979
:102EC000E869A2690B1A61690144101A401C921E3C
:102ED00004F0F4F8EE6913E05FF0000655F8260000
:102EE00005F0F3F8E069831BA069821B6069811912
:102EF0002069304404F01EF8761C022EEEDB022618
:102F0000D5E90301CDE900016169E0690844431096
:102F1000A069891C821B2069304403F059FF02E03C
:102F200089E012E08AE0D5E90501CDE90001E36915
:102F300060690121184401EB6001A0699B1E821B9E
:102F40002069304403F044FF78E0206803F050F833
:102F5000049020680BF0AEFD40B1A06808B10020DD
:102F600008E00498006F28B1012003E00498406F46
:102F700000B10220049901EB8000C56E04A803F0A3
:102F8000A1F800231A462846216803F0A5FC55E065
:102F9000206803F02DF80490866EEEB3B0F95C70F3
:102FA000A168D1B3032942D05FF0000100EB810199
:102FB000406D0C6C05F0B2F8204605F086F805A8C7
:102FC00004F03EF9BDF81410A88B0144ADF81410BC
:102FD000BDF81810081AADF81800BDF81600801CCE
:102FE000ADF81600BDF81A00801EADF81A0004985E
:102FF000B0F96020B0F95E1005A804F0C3FE04A883
:1030000003F060F8022005F013F9304602F0F0FFFB
:103010003A4605A9079001E00BE006E003F060FDE9
:103020000DF11C0003F04EF808E00121BEE702217B
:10303000BCE704A8F6E720680BF082F909B000208D
:10304000F0BD0000B4AD0600044A03491160044914
:103050004A6A486210467047A0000010100600102F
:103060001C06001000294FF0100101D009F0E7BD47
:1030700009F02FBD4FF480720029114601D009F0EC
:10308000DEBD09F026BD08B50023009300F001F86D
:1030900008BD70B516460C46054619463046049ADA
:1030A00003F0FCFB024621462846BDE8704000F0D4
:1030B0002DB82DE9FF410E4605004FF0010421D047
:1030C00004F0E8F9284602F093FF0190876E01A80A
:1030D000009702F0F7FF3146684606F0C3FA78B170
:1030E00000980024B84208D0284602F081FF0190E1
:1030F0000099816601A802F0E5FF28460AF0EEFD7E
:1031000005F038FB04B02046BDE8F081F8B515465F
:103110000C46060018D004F0BDF9304602F068FFF6
:103120000090032C0BD200EB84006C3002F0B6FE52
:10313000009800EB8400C56630460AF0CFFD684673
:1031400002F0C0FF05F016FBF8BDF8B5446805466F
:103150000146204609F0E4FC002836D028680B28F8
:1031600039D00E2805D00F2821D0B0F5107F3CD1E2
:103170002CE0204602F03CFF009010F8746F477876
:10318000684602F09FFF20460BF094FC10B3E868FD
:103190004168002929DD0068202826D17F1CB7FB63
:1031A000F6F006FB1071204600F028F91DE02546D8
:1031B000204602F01DFF0090006F0468684602F090
:1031C00081FF002C01D02846A047F8BD29462046A3
:1031D00012F018FF09E0204602F00AFF0090783054
:1031E00002F05CFE684602F06DFF2846BDE8F8403C
:1031F0000AF08CB8F0B585B0B0F90850468A8469F9
:103200000296CDE903540027CDE90017B0F90C1060
:10321000B0F91050B0F90E40B0F90A00194410444A
:103220002B46224600F002F805B0F0BD2DE9F04F24
:1032300085B01D46DDE90E9716468A468346DDF8C1
:10324000488004F027F9254C0EB135B10AE020681A
:103250008068006880470646F7E720688068006855
:10326000804705461D486FF07041001DC0688842C8
:1032700001D147F0010708F15400194ACDE90220B5
:10328000CDE900972B4632465146584609F08CFF4F
:1032900005001CD002F0ACFE10220490119909F038
:1032A000B5FE0E4904983C22091D3430FFF727FC77
:1032B000049821680167022180F874100F21C1670A
:1032C00004A802F0FFFE206841682846884705F000
:1032D00051FA05B02846BDE8F08F00004C060010FA
:1032E0004B3100002DE9FF470446006810B10BF098
:1032F000E1FB68B10022314850F8221060680A28CA
:1033000041D007DCF0B306280DD0072854D106E0E1
:103310000122F0E712280AD019284DD137E02046C3
:103320000DF09EF848E020460EF026FA44E02068B2
:1033300002F05EFE0290B0F9548090F85650476C4F
:10334000466B02A802F0BEFE206800F039F8814604
:1033500068460AF0EFF8BDF8001009EB05000844D4
:10336000ADF80000246A304604F0D8FE022004F0D4
:103370005FFF384604F0A9FE42466946204603F046
:10338000AFFB19E007E020460EF085FF14E08869E6
:1033900004B0BDE8F08720680AF0D2FF206802F090
:1033A00027FE0390B0F90610B0F90220891A491CD3
:1033B000C16703A802F086FE0020E9E7C4AD06005D
:1033C00038B5044604F066F8204602F011FE00907D
:1033D000C46F684602F076FE05F0CCF9204638BD91
:1033E000044A034911600449CA69C861104670471C
:1033F0002C0100104C0600105006001038B50C4689
:1034000005001BD004F046F8284602F0F1FD0090BC
:1034100090F87410A1420CD980F87540684602F00B
:1034200051FE28460AF05AFC052128460AF008FDFC
:1034300002E0684602F046FE05F09CF938BDFEB594
:103440000D46040022D0002D20D004F023F82046A1
:1034500002F0CEFD0190866F01A8009602F032FEC8
:103460002946684606F0FEF870B10098B04208D0D0
:10347000204602F0BDFD01900099816701A802F08D
:1034800021FE20460AF02AFC05F074F9FEBD00007A
:1034900000B589B024216846FFF758FB1920019038
:1034A00003480068806841686846884709B000BDE5
:1034B0004C060010014800687047000078010010B9
:1034C0002DE9FC410C46050038D003F0E3FF112C38
:1034D00014D0132C28460ED002F08AFD009000F084
:1034E0006EFB0646684602F0EDFD204615F0FEFD37
:1034F000074600241CE000F000FB1BE0284600F01B
:1035000081F917E02146284600F05CFB019070B17C
:10351000007815F0EBFD00F0FF0801A802F0D2FDE5
:10352000B84504D12146284600F000FB02E0641CA7
:10353000B442E7DBBDE8FC4105F01CB9BDE8FC8105
:10354000F8B50C46050018D0002C16D003F0A2FFE9
:10355000284602F04DFD0090C66B684602F0B2FDB1
:103560002046FFF7FEFA421C2146304602F0CEFD0F
:1035700028460AF0B3FB05F0FDF8F8BD2DE9FF4140
:1035800045680446284602F033FD0190D0F8886073
:1035900001A802F097FD0EB1012700E000272146A7
:1035A000284609F0BDFA002856D02068112844D0DA
:1035B00006DC0B2863D00E2878D00F282BD14FE0E3
:1035C000212805D026281AD0B0F5107F23D139E064
:1035D000E068416800291EDD00680D281BD13046D7
:1035E00007F0DDF9002806DB304607F0D8F9014680
:1035F000284600F09BFA284600F078F86FE0E06873
:10360000012809D00A2802D00B286BD111E00A2129
:1036100028460AF015FC65E0304607F0C0F900289E
:1036200060DB304607F0BBF90146284600F07EFA21
:1036300055E0284600F05AF854E0FFB9E068007AF7
:1036400098BB4FE0E06848B1007A08B1012100E082
:10365000022128460AF0F4FBBDE8FF810321F8E7C8
:103660002E46284602F0C4FC0290D0F8840005687B
:1036700002A802F027FD0DB13046A84732E02846E7
:1036800002F0B6FC0090C06B02F080FD0098D0F80C
:10369000880009F073FE0098D0F8940002F0D4FB83
:1036A000684602F00FFD1DE000E010E0E0684168B0
:1036B000002917DD016809290DD00A2912D01B291C
:1036C00010D0202903D02846FFF7FAFEC4E7284689
:1036D00000F0FAF806E009F08FFFB04202D1284668
:1036E0000AF096FD204609F011FEB5E738B5040052
:1036F00016D003F0CFFE204602F07AFC0090D0F8FE
:10370000880040B109F03AFE00990020C1F8880015
:1037100020460AF0E3FA684602F0D4FC05F02AF8E5
:1037200038BDF0B585B0B0F90850468A8469029674
:10373000CDE903540027CDE90017B0F90C10B0F91A
:103740001050B0F90E40B0F90A00194410442B464D
:10375000224600F003F805B0F0BD00002DE9FF5F40
:103760001D46DDE90F8691468A4683460E9F129CD0
:1037700003F090FE21496C34CDE90214CDE90078C4
:103780004FF0FF334A465146584609F00DFD0400FC
:103790002DD002F02DFC10220090119909F036FC7A
:1037A00000983822164980F88C604C30FFF7A7F952
:1037B000134E0098361F3168C0F88410002180F83D
:1037C0009010C586204600F0D9F9684602F07AFCD0
:1037D00002F0D9FC0546204602F00AFC0090C563C1
:1037E000684602F06FFC306841682046884704F064
:1037F000C1FF04B02046BDE8F09F00007D35000009
:103800009006001010B5044600F063F9010000D0E6
:10381000411E2046BDE8104000F088B9F8B50546C5
:10382000006802F0E5FB0090448ED0F8886068469E
:1038300002F048FC06B1012604F0010428680BF0F0
:1038400039F90EB1002006E00CB1012003E008B107
:10385000022000E003201B4951F82010686858B38B
:1038600002280CD0052802D0122828D103E02846CF
:103870000CF022FE23E028460FF0C3FA1FE06A692D
:10388000E8694FF0FF33801AA0F1080203EB6204ED
:10389000421CAB69001B4510A3EB6206C86904F02B
:1038A00014FC06E03219311B284603F0CDFA641EE1
:1038B0006D1C002CF6DA02E028680AF041FD0020B9
:1038C000F8BD0000CCAD06002DE9F14F9EB01E986A
:1038D00000287DD003F0DEFD1E9802F089FB0B90DE
:1038E0001E9809F0BBFF03900B98B0F9367090F862
:1038F00090101891C16B0A9190F88C90B0F9341027
:10390000159100F05CF982460B9804ACB0F88E106B
:103910001491B0F982101391C16C1291D0E9001288
:10392000CDE90C12D0F894B0002100BF00EB810269
:10393000126D44F82120491C0329F7D3002107AD5B
:1039400000EB8102D26D45F82120491C0329F7D3F1
:1039500000210EAE00EB8102126F46F82120491CB7
:103960000329F7D30BA802F0ADFB1E9809F0DDFE8A
:1039700002F03EFB1190D0F8008011A802F0A2FBEB
:103980004FEA284042420FFA88F041420CA804F066
:10399000F9F95FEA897003D5BDF83200C01B01E078
:1039A000BDF83600ADF832001E9809F0BEFE0146A3
:1039B00003980222CDE900070292BDF93230BDF929
:1039C0003020002006F070FF80465FEAC97000E0FA
:1039D0007CE007D04046189907F02FFA01214046B5
:1039E00007F050F9002708E039460A9802F002FC77
:1039F0000146404606F013FE7F1C5745F4D30027CE
:103A0000394654F82720404607F066F97F1C032FFB
:103A1000F6D30024214655F82420404607F0A6FAA4
:103A2000641C032CF6D30024214656F8242040467B
:103A300007F0E3F9641C032CF6D35FEA0B001FD0F8
:103A400002F0D6FA169030F8025B002406460127F1
:103A500011E000BF06EBD40004F00701007807FA7C
:103A600001F1084201D0012200E000222146404637
:103A700007F064F9641CAC42ECDB16A802F022FBF0
:103A80004046149907F08DF94046129907F03DF928
:103A90004046139907F055FA40460AF0B9FB4046F4
:103AA0001E9907F095F94046159907F0E3F90121B1
:103AB0001E980AF0C5F91E9802F09AFA0B90C0F809
:103AC00088800BA802F0FEFA04F054FE1FB0BDE897
:103AD000F08F38B505004FF000040CD003F0DAFC8D
:103AE000284602F085FA0090B0F93440684602F0AA
:103AF000E9FA04F03FFE204638BD10B50446FFF752
:103B0000E8FF411C2046BDE8104000F00FB800005F
:103B1000044A0349116004490A6B08631046704760
:103B20007C0100108C0600109006001038B50C4681
:103B3000050022D003F0AEFC284602F059FA0090AE
:103B400000F03DF800B1401E844200DD04460098BC
:103B5000B0F93410A1420BD08486684602F0B2FA64
:103B600028460AF0BBF8042128460AF069F902E069
:103B7000684602F0A7FA04F0FDFD38BDF8B504462A
:103B800002F036FA01460090B0F9380010B9C86C5E
:103B900003F0FEFB0099CA6AB1F98030126800EBAD
:103BA0004300161808460AF003FE0546684602F070
:103BB00089FA3246294620460AF017FCF8BDC06B48
:103BC00002F00CBB38B50D46002402F011FA00904B
:103BD000C06B294602F00EFB0546684602F072FAF9
:103BE0001DB1284602F004FA0446204638BD2DE9EE
:103BF000FC470E465FEA00097FD003F04BFC4846C5
:103C000002F0F6F9009090F85470D0F85880456BA7
:103C1000C46C684602F056FAB8F1000F04D0314681
:103C200048464246904761E0122E18D006DC082E26
:103C300043D0102E3CD0112E06D112E0132E21D0ED
:103C40001D2E43D01E2E3DD0202E4FDB17B14846EF
:103C50000CF0DFF9B1B2484611F0D6FB60B3611C3D
:103C600027E04DB3284602F0C3F9054621460190EE
:103C700004F06EFC4419204604F018FC014623466B
:103C8000012210E0C5B1284602F0B2F905462146EE
:103C9000019004F05DFC4419204604F007FC014645
:103CA00023464FF0FF3248460BF02DFE01A81BE0E3
:103CB000611E484600F0FDFA18E0BCB1611E48469E
:103CC00000F0F7FA48460CF0A4F90FE0484602F07D
:103CD0008FF90090012F12D0012180F85410214655
:103CE000484600F0E6FA684602F0ECF9484609F06A
:103CF000F5FF00E001E004F03DFDBDE8FC87002198
:103D000080F85410EFE7FEB54468054620460AF0F7
:103D1000D1FE06462946204608F002FF002837D08B
:103D200028680F2830D004DC0B2832D00E284DD163
:103D30003AE0A0F58070133804D0A0F580702D38DB
:103D400044D110E020460AF057F92046002112F035
:103D50006BFC204602F04CF90190C06F00210AF084
:103D600022F901A81DE0E86860B1017A29B1016873
:103D7000204600F0F9F8012100E0022120460AF077
:103D80005FF823E00321F9E70121204612F04CFC03
:103D9000FEBD204602F02CF90090343002F07EF88F
:103DA000684602F08FF911E086B1E86841680029A1
:103DB0000CDD0168092909D00A2907D00D2905D091
:103DC0001B2903D02046FFF712FFFEBD284609F04D
:103DD0009DFAFEBDF0B587B00DF1300E9EE8F010F3
:103DE0004FF0000E8DE8F05000F028F807B0F0BD5D
:103DF000F0B587B004460DF1080CD4E90567B0F9B9
:103E00000850408A8CE8E1000020CDE90010B4F9A8
:103E10000C00B4F91060C118B4F90A00B4F90E50DE
:103E2000104433462A4600F009F8050002D0618AA2
:103E300000F0F8F907B02846F0BD00002DE9FF5F5B
:103E40001F46DDE91254DDE90E6A90468946834635
:103E500003F020FB0DF1040C4AF480501E49583445
:103E600000968CE813003B4642464946584609F006
:103E70009BF904002AD002F0BBF81022009011999F
:103E800009F0C4F800981C2214496030FEF737FE90
:103E9000009A012082F85500681C00D0012082F8A9
:103EA0008000002D00DC08252DB2158700205087EA
:103EB000506368466D1C02F005F92946204611F052
:103EC00088F918B9204609F059FA002404F052FC88
:103ED00004B02046BDE8F09F073D00003802001006
:103EE00001488068704700003802001038B50500AE
:103EF0004FF000040BD003F0CDFA284602F078F81A
:103F00000090846C684602F0DDF804F033FC204633
:103F100038BDF8B515460C46060013D003F0BAFAC2
:103F2000304602F065F8009038B1022C05D200EB63
:103F300084004567304609F0D1FE684602F0C2F8B9
:103F400004F018FCF8BD70B50D46044603F0A2FA63
:103F500034B12946204600F0ACF9204609F0BEFEF7
:103F6000BDE8704004F006BC2DE9F04186B00C4677
:103F7000060055D003F08EFA304602F039F8009072
:103F8000406B98B302F034F803900098806E04F010
:103F9000C5F88046304609F061FC0746039803F0F7
:103FA000CDF90546009890F8601001F00301012951
:103FB00016D002290DD0416EC06A00680844241A48
:103FC000641E039805F0C4F90146002C0FDA0021A5
:103FD00015E0781B401C00EBD070A4EB6004F0E708
:103FE000406E791B081A241A641CEAE713E0AC42FD
:103FF00005DC02462146039805F04AF901463046A1
:1040000000F057F903A802F05DF8404604F086F886
:10401000304609F063FE684602F054F804F0AAFB4B
:1040200006B0BDE8F08100002DE9F8431D46DDE94A
:10403000084916460F46804603F02CFA5FEA08004E
:1040400040D001F0D5FF2149009081652049C1652C
:104050000021C0E91271E0E90F650121047280F8C6
:104060001A90017690F84470684602F02BF887B1F8
:10407000284610F039FC0546304610F035FC0CB1EE
:10408000401C6D1C854200DD28460146404600F07C
:104090002BF8404615F0EEF8404601F0A9FF0090DD
:1040A00000F0F2F80B490978884205D10098C16CFC
:1040B0004046491C00F0FDF8684602F003F840460F
:1040C00009F00CFE04F056FBBDE8F88355F2000041
:1040D000759201002000001000294FF0100101D05E
:1040E00008F0ADBD08F0F5BC7CB50C46060033D039
:1040F00003F0D0F9304601F07BFF0090B0F93810A2
:10410000458FA14223D012DD406B80B101F070FFDA
:10411000019005F01DF9A04206DD2146019804F04A
:1041200017FA019A0021115401A801F0CBFF68464B
:1041300001F0C8FF611B3046491C11F04AF83046B7
:1041400001F056FF00900487304609F0C7FD68462D
:1041500001F0B8FF04F00EFB7CBD2DE9FC4788465A
:104160005FEA00094FF000065AD003F093F9484681
:1041700001F03EFF0090B0F93850446B684601F002
:10418000A1FF0027B8F1000F3ED04CB1204601F04E
:104190002FFF0190FEF7E5FC461C01A801F092FFFD
:1041A000404605F0D5F80446A84200DD2C462146DD
:1041B000404604F0CDF9451CA91B484611F0F7F91B
:1041C00008B3484601F014FF0090406B01F010FF67
:1041D0002A4641460190FEF792FC0198284400F8D7
:1041E000017C0098C464B0F938108C4205D190F875
:1041F0005410012901D1641EC464684601F062FFB5
:1042000001A801F05FFF06E00098343001F046FE9F
:1042100000984787C764484609F060FD04F0AAFA91
:10422000BDE8FC8738B50C4605000FD003F032F925
:10423000284601F0DDFE009018B10466284609F01A
:104240004DFD684601F03EFF04F094FA38BDF8B524
:1042500015460C46060013D003F01CF9304601F059
:10426000C7FE009038B1022C05D200EB8400C56671
:10427000304609F033FD684601F024FF04F07AFA75
:10428000F8BD002214F070BD38B50446406B00251F
:1042900068B101F0ADFE00900546E16C04F058F9FC
:1042A000284404F003F90546684601F00BFF284650
:1042B00038BD1CB50C4601F09BFE0090406BF0B180
:1042C00001F096FE019005F043F8009991F8542012
:1042D00002B10122002C00DA0024844200DD0446F1
:1042E000B1F93800801AA04200DA0446C86CA04236
:1042F00000D0CC640020086501A801F0E3FE684608
:1043000001F0E0FE1CBD2DE9F04389B0984615464A
:104310000F4606004FF000042CD000F0E9FB0446E5
:10432000304600F0CCFB814603F0B4F803A93046D8
:1043300000F047FDF80706D0BDF91C008221001BE4
:10434000401B401C08E0B807BDF91800284402D5FE
:1043500040F2022100E002210096CDE901812346CE
:104360001A464946FEF7D8FC04460021FEF77AFEBD
:1043700004F000FA09B02046BDE8F08310B505232B
:10438000FFF7C1FF0446054A0021FEF77CFE044901
:10439000204609F080FE204610BD000039020100D1
:1043A000519D010010B50723FFF7ADFF0446054AF4
:1043B0000021FEF768FE0449204609F06CFE204605
:1043C00010BD0000D1020100679D010010B5082357
:1043D000FFF799FF0446054A0021FEF754FE044901
:1043E000204609F058FE204610BD000001030100E0
:1043F0009D9D01002DE9F047456804468EB00027D9
:10440000284601F0F5FD0090B0F87CA0D0F8689047
:10441000D0F88080D0F88860C06D00B10768684629
:1044200001F050FE05E0716820468847002841D120
:104430003668002EF7D12068172852D00CDC0F28E0
:104440003BD004DC0B2874D00D283AD189E0112828
:1044500010D0142835D13AE0262845D004DC1E2897
:104460004FD020282DD188E02A2814D0B0F5107F15
:1044700027D127E02846E66801F0BAFD0190717A5D
:1044800039B9317A012904D130F87C1F41F48071A7
:10449000018001A88EE0284601F0AAFD0090E168A5
:1044A00011B1C0F8841002E0D0F88400E0606846E2
:1044B00001F008FE0EB0BDE8F087002F7CD0284642
:1044C000B84779E02146284611F026FDF2E705A914
:1044D000284600F076FCE068069901600799416083
:1044E000E8E7C4F80C90E5E7E0680228E2D10C9513
:1044F000E0680D9027200A900AA9A0680AF0E8FC5D
:10450000D8E7E068012804D00021284600F0BEFB6F
:10451000D0E7404609F03DFC60B1404609F078FE26
:10452000404609F02FFB90B10121404608F087FB7F
:104530000DE04BE0484609F0B7FE8046284601F002
:1045400057FD0090C0F88080684601F0BBFD012156
:10455000284600F09BFBB8F1000FABD10020E060D3
:10456000A8E75FEA0A7027D4E068C06820B3007A41
:1045700010B3284609F04CFE1EE0E668E6B1294675
:1045800070680AF080FA20B10121284613F006FF76
:1045900012E00021284613F001FF294630680AF096
:1045A00061FA48B1284601F023FD03903168C0F854
:1045B000801003A801F086FD2146284608F0B0FAD5
:1045C00000288DD0204608F0A1FE73E7284601F0B0
:1045D0000FFD0090703001F061FC6846EAE7F0B52D
:1045E00087B0B0F908400DF10C0C0C9E8769456846
:1045F0008CE8F000448A0025CDE900150294B0F95A
:104600000C10B0F91050B0F90E40B0F90A0019447E
:1046100010442B46224600F003F807B0F0BD00001E
:104620002DE9F04F8BB09846DDE9155691468A4644
:104630008346149F1A9C02F02DFF3348603445F4E2
:104640008055CDE90204CDE9007543464A465146FE
:10465000584608F0A9FD04004FD001F0C9FC3022F3
:104660000490179908F0D2FC049828222749343086
:10467000FEF745FA04981999244F4166A0F87C602A
:104680000026C0F88060C666083FC0F88860796878
:10469000C16504A801F016FD05A9204600F091FBB4
:1046A0001B4841F2827103960094CDE90110BDF9D7
:1046B0001E00BDF91A10BDF91C20431ABDF91800DF
:1046C0005B1C121A521C08F06FFD064678684168A0
:1046D00020468847204601F08BFC0490866604A89B
:1046E00001F0F0FC42F20400054202D1204608F03D
:1046F000A3FE2046189900F041FB04F03BF80BB0F4
:104700002046BDE8F08F0000F54300005C02001079
:10471000E94F00002DE9F041044694B0006800F034
:10472000B7F908B1D94D01E0D84D2C35606815288E
:104730001ED00CDC0B281FD004DC00287ED00528FE
:104740007DD12FE10E287BD01228F9D141E1162826
:1047500006D0172808D0182808D01C28F0D109E066
:10476000E86914B0BDE8F081286AFAE7686AF8E7FA
:10477000A86AF6E76869F4E720680B901C200C90A3
:10478000206801F035FC0390016D0BA888470646B0
:1047900003A801F097FC022E0FDB95E807008DE8D7
:1047A0000700D4E904023346A16904F0CFFB206975
:1047B0008719A069A0EB06082CE0286803F085FCA7
:1047C0002169E8690A18521E606902F03DFBA2697E
:1047D000E869111A491C606902F036FBD4E9040744
:1047E0007F1C394602F080FB3946A06902F07CFB51
:1047F000686803F06AFC20693946401C02F074FBCB
:10480000A0693946401E02F06FFBA0692769A0F13C
:104810000208BF1C286803F058FC4246394660690C
:1048200002F012FB686803F050FC606942463946AA
:10483000401C02F009FB686A022802E015E1B0E0C2
:1048400000E10BDDA86803F040FC61696A6A881C1E
:104850008B180146424638465B1E27E0296AB14262
:1048600026DD6069022E074600F1020801DB3744AD
:1048700001E007F10207206901DB304401E000F1AB
:10488000020022693B460A444146A2F1010202F0BD
:1048900015FC022E02DBA069821B01E0A269921EB8
:1048A000A069E9693B46401A4146401C02F006FCFB
:1048B000022E02DB6069064401E06669B61CE76906
:1048C00028687F1E03F001FC3A463146206902F059
:1048D00071FB3A463146A06902F06CFBE7696868F3
:1048E000BF1E03F0F2FB20693A463146401C02F03D
:1048F00061FBA0693A463146401E02F05BFBE86965
:10490000022802DC286A022823DDA86A022802DDC8
:10491000E1690F1A01E0E769BF1EA86803F0D5FB43
:10492000E969022909DD20693B46421800F1020CC1
:1049300031466046521E02F0C1FB286A022808DD9B
:10494000A269E8693B46101A3146401C921E02F0EB
:10495000B5FB286803F0B9FBD4E90620216902F011
:1049600073FA686803F0B1FBD4E906202169401EA0
:10497000491C521E02F068FAA86A022811DDA169DA
:104980002669E469A1F10208271AA41EB61C7F1C3F
:10499000A86803F09AFB234642463946304602F0A7
:1049A0008DFB71E0208A00B2ADF81400A18A09B233
:1049B000ADF81610228B12B2ADF81820A38B1BB2E3
:1049C000ADF81A302C69ED68CDE9005402F000FA18
:1049D0005AE0208A298B0844ADF81400A08AADF86B
:1049E0001600208B298B401AADF81800A08BADF86B
:1049F0001A00206801F0FCFA0390006FF0B1022069
:104A000003F016FC039890F87C10C1F3C00100EB92
:104A10008100006C03F059FB0398406B03F07EFBB0
:104A20000398006F01F0E4FA03990990B1F95A2054
:104A300005A902F055F809A801F044FB03A801F00C
:104A400041FB21E0208AADF81400A08AADF81600E1
:104A5000208BADF81800A08BADF81A00A86803F001
:104A600034FB05A802F056FB0EE0206801F0C0FA06
:104A7000039030F85A1F41F00C01018003A801F0A7
:104A800021FB206809F05CFC00206AE6B0020010FF
:104A900038B505004FF000040FD002F0FBFC2846AB
:104AA00001F0A6FA009090F87C00000700D50124E0
:104AB000684601F007FB03F05DFE204638BD38B5BF
:104AC00005004FF0000411D002F0E4FC284601F08C
:104AD0008FFA0090C06D00218068026828469047D8
:104AE0000446684601F0EEFA03F044FE204638BD65
:104AF00030B587B005004FF0000413D002F0CAFCB7
:104B000001A9284600F05DF9284601F071FA0090ED
:104B1000B0F95440684601F0D5FA0CB9BDF904402B
:104B200003F028FE07B0204630BD38B505004FF031
:104B300000040ED002F0AEFC284601F059FA0090B5
:104B400090F87C00C0F3C014684601F0BBFA03F093
:104B500011FE204638BD38B505004FF000040ED0D8
:104B600002F098FC284601F043FA009090F87C008F
:104B7000C0F38014684601F0A5FA03F0FBFD20465F
:104B800038BD10B5040008D002F084FC204610F0B7
:104B900019FEBDE8104003F0EDBD10BD10B50400D6
:104BA00008D002F077FC204610F05BFEBDE8104014
:104BB00003F0E0BD10BD30B504468BB0006801F0D5
:104BC00017FA009090F87C10246A006FC1F3C005BA
:104BD00008B101F00DFA0690E06802902069039098
:104BE000A088401EADF81000E089ADF812002089C1
:104BF000401CADF81400608AADF81600BDF808003E
:104C0000401CADF80800BDF80A00401CADF80A00D1
:104C1000BDF80C00401EADF80C000098406B03F08E
:104C20007DFA009808AA02A9B0F95A30069803F054
:104C3000EDFD009800EB8500806B05F0A3FA00986D
:104C400000EB8500006C05F0D5FA08AB02AA04A9B8
:104C5000069808F0E7F8684601F034FA069810B1B3
:104C600006A801F02FFA0BB0002030BD10B50400EB
:104C70000BD002F00FFC204613F020FB204613F06F
:104C8000F1FABDE8104003F075BD10BD70B50D46DA
:104C9000040009D002F0FEFB2946204613F07EFBFB
:104CA000BDE8704003F066BD70BD000001490860BA
:104CB000704700005C020010074A0649054B11606E
:104CC000064A083BD16958601B68C2E906300846AD
:104CD00070470000A4020010580200105C0200108F
:104CE00038B50C46050013D002F0D4FB284601F07D
:104CF0007FF9009030F87C1F14B141F0100101E001
:104D000021F010010180684601F0DCF903F032FD6A
:104D100038BD38B50C46054602F0BCFB55B12846F7
:104D200001F066F900900466684601F0CBF9284668
:104D300008F0D4FFBDE8384003F01CBD38B50C4680
:104D4000050015D002F0A6FB284601F051F90090AD
:104D50002CB1084A0849883002F043FB03E00649B9
:104D6000883002F043FB684601F0ACF903F002FD25
:104D700038BD000031510100940200107CB50D4691
:104D800004001DD002F086FB204601F031F90090AE
:104D9000006F0190684601F095F9294601A804F0DA
:104DA00061FC58B1204601F023F900900199016798
:104DB000684601F087F9204608F090FF03F0DAFC1E
:104DC0007CBD2DE9F34F85B000270C46B846059809
:104DD00001F00EF90090C06D0121856805982A68E0
:104DE000904782462A6803210598904704902A68D4
:104DF00002210598904703902A6800210598904762
:104E00000646009809F0D4FC8346009809F0D7FCC8
:104E10008146009890F83210890601D5B0F9588083
:104E200000F036F805460098C06E10B108F02DFD70
:104E3000074625806780A4F804A0049AABEB020023
:104E400006EB0802401E2A4420813A44E280039B7C
:104E5000A9EB0302521E6281A4F80CA020827019F3
:104E6000E681401E6082684601F02CF9B4F90C001E
:104E70000190B4F91000029002AA01A9059800F06F
:104E800039F80198A0810298208207B0BDE8F08F20
:104E900010B50146002091F83220920607D5B1F9ED
:104EA0005400002803D1486B02F076FA801C10BD34
:104EB00070B58AB00C46054601F09AF80990C06DAD
:104EC000866809A801F0FEF8009534B1012C06D0DF
:104ED000022C0BD0032C04D10AE0182000E016208D
:104EE00001907168684688470AB070BD1520F7E7E1
:104EF0001720F5E72DE9FC4117468846044601F0E6
:104F000077F80090C16D056868468E6801F0DAF8A0
:104F100032680021204690470646204608F04FFBA5
:104F200027E000BF01F064F80190B0F900102AB248
:104F3000B0F90430891A9A1AB0F90230A3EB25436C
:104F4000B34210D190F82800000605D53868884291
:104F500009DB491E396006E0D8F80000904202DC07
:104F6000521CC8F8002001A801F0ACF8204608F057
:104F7000CFFB0400D6D1BDE8FC8170B586B00646F3
:104F800001F036F80590D0E91A4505A801F09AF825
:104F900054EA050026D069463046FFF712FFACB14F
:104FA000BDF90620BDF90410204608F0FEFEBDF94B
:104FB0000A00BDF90610421ABDF90800BDF9041037
:104FC000521C411A2046491C09F00FFA002D09D045
:104FD000BDF90600BDF90210421ABDF904102846B9
:104FE00008F0E3FE06B070BD2DE9F04304464068CA
:104FF00085B0064608F099FB814600F0F9FF009065
:10500000D0F88080876C456E684601F05BF82068B8
:10501000172859D008DC0E2837D00F280BD01428B9
:1050200052D015283AD14FE01E2818D01F2827D07B
:10503000222833D146E06FF07040874204D03846D2
:1050400005F0A0F801F0D2FA002D12D0D4E9021236
:105050002068CDE90106CDE9031201A822E0E0684D
:10506000002806D05FEA080006D0B04504D009F059
:10507000CFF805B0BDE8F083304609F015F916E029
:105080002146484607F04CFDF3E7E06841680029F7
:1050900004DD00680928EFD00A2805D0A5B1204614
:1050A000C4F80490A847E4E7304609F026F904461E
:1050B000484600F09DFF0090C0F88040684601F02F
:1050C00001F8D6E7E760D4E7204608F01FF9D0E7FB
:1050D0002DE9F0430446C56887B090468946002014
:1050E00003F010F8064625B1287910B146F0020009
:1050F00001E026F0020003F005F82069012558B10F
:10510000D4E902128DE8260003956388228804689A
:1051100041464846A0471EE0124F134B21463868CF
:105120001B68427CE068984730B9E088012801D0CC
:10513000002001E03868806BA288E388A1680095B0
:10514000CDE90410CDE902320195638822884146F9
:10515000484604F0EBFB07B03046BDE8F04302F0F0
:10516000D1BF00002C000010240000101CB500244A
:10517000019401AC009400F0E7F81CBD2DE9FF4F4D
:1051800083B0814606988A46A0EB0A08109E00204C
:105190000090A2EB09043568934654EA080018D041
:1051A0002046FBF7A5F807464046FBF7A1F88742E3
:1051B0000BDA2046444680464846D1468246584649
:1051C000DDF818B0069001200090002C07DD204685
:1051D00006E007B04846BDE8F04F00F03BB960423A
:1051E000A0420AD04846D9466442C8F10008834626
:1051F0004FF0FF37DDF818A000E001275148B8F163
:10520000000F11D004EBD4714FEA610B01DACBF13E
:10521000000B4C480068807E88B3002F02DA3068AB
:105220002044306000257BE000990029016821D0EE
:10523000897E11B10027804615E007B05A464946DD
:105240005046BDE8F04F04F0D3BC28466D1C13F067
:10525000A7F938B9D8F8000009EB0701006E4268D9
:10526000504690477F1CA742EFDD6D1E356007B0AA
:10527000BDE8F08F8A7E1AB10027804617E019E05A
:10528000086E5A465146036807B04846BDE8F04FDD
:10529000184728466D1C13F083F938B9D8F8001068
:1052A00009EB0700096E4A68514690477F1CA742E8
:1052B000EFDDDAE700250FE008FB05B090FBF4F125
:1052C00001EB0A00009951B11E4A09EB0501126871
:1052D000126E526890476D1CA542EDDDC7E7194973
:1052E00009EB05030968096E4A6801461846F1E7AB
:1052F00008FB05B090FBF4F101EB0A000190306867
:105300003844306013F04CF948B9009890B10D481A
:1053100009EB05010068006E4268019890476D1C1A
:10532000A542E5DD3068002F01DA20443060C01B63
:1053300030609CE7034909EB05000968096E4A687B
:105340000199EBE72C0000102DE9FF470F4640497B
:105350001646804609680C981D460A7E012A1CD014
:10536000A8EB0600791B50EA01031CD0A2F1010949
:1053700014F0ACFC00F58060824604F062FA00FB99
:1053800009F4504604F062FA00FB09F1002C0CDA33
:10539000C4F50070801240420AE00090324639465F
:1053A0004046FFF7EBFEBDE8FF8704F50074A0124E
:1053B000002904DAC1F5007189124C4202E001F5BE
:1053C00000718C12002804DD411C01EBD1714910E1
:1053D00003E000EBD0714910401E00EBD07042108A
:1053E000002C04DD601C00EBD070401003E004EBE7
:1053F000D4704010641E04EBD47308EB0104ADF8C4
:1054000000403C18ADF80240A8EB02045B10B21A51
:10541000ADF80440ADF808203144FC1AEA1AADF8A2
:105420000C102844ADF80A20ADF80E000023ADF8AA
:1054300006401A460421684600F07AF8394640468C
:105440000DF00CFA294630460DF008FAABE70000E3
:105450002C000010064A13681A7E012A05D0521E3D
:1054600002EBD272521000F005B81A6E5268104763
:105470002C0000102DE9F05F0646884640F2C3205C
:1054800002FB00F14FF47A7091FBF0F702FB02F19E
:1054900002EBD27001EB600B1446B118234A301BAB
:1054A0007F1C1268126E13680A4641469847012510
:1054B00038E000BF05FB05F004FB040159451CDD85
:1054C000BC4219DD194B06EB050AA6EB05091B6862
:1054D000AAF1010208EB04011B6E09F101001B682F
:1054E0009847124BAAF10102A8EB04011B6809F1CD
:1054F00001001B6E1B689847641E0C4B3219301B51
:105500001B68924608EB05011B6E81461B68984795
:10551000064B5246A8EB05011B6848461B6E1B68EC
:1055200098476D1CBD42C5DDBDE8F09F2C00001002
:105530002DE9FF4F43F6FF740F46664283B09B464A
:10554000814600210BE000BF09EB8100B0F90200A9
:10555000A04200DA0446B04200DD0646491CB942CA
:10556000F2DB67480068406900280DD0B0F90610EA
:105570001A46A1EB0B01B14200DA0E46B0F9020067
:10558000801AA04200DD0446B4E0DFF878A10020D4
:105590000546CAF8000088E0781E854201DA6B1CD7
:1055A00000E0002309EB850C09EB8302BCF9020043
:1055B000B2F90210A04244D1A14215D139F92330E9
:1055C000059A39F9251003EB020C4D4A059812682B
:1055D000084404EB0B01126E6045136801DA624661
:1055E0002AE00246604627E02846A4464FF000081D
:1055F0007A1E0BE008B1401E00E0781E09EB800324
:10560000B3F90230634504D108F101089045F1DB9C
:105610002346A34248D01A1B39F92500A1EB040CFC
:10562000059B92EA0C0F09D4354A184404EB0B0190
:105630001268126E13680246984735E009F03EFD85
:1056400032E0A14230D001DBA04203DDA0422BDBDF
:10565000A14229DCE04688420ADC0346A04223DC62
:105660000846A14220DBB8F900C0B2F9001008E0FA
:105670000B46A14218DCA04216DBB2F900C0B8F913
:105680000010E21AA1EB0C0151430029A0EB030228
:1056900002DD01EB620102E0A1EB6201491CC01ACC
:1056A00091FBF0F06044C9E76D1CBD42FFF674AF9A
:1056B0000598009004EB0B00019000208046054601
:1056C00013E01149B8F1000F31F915A009D0009984
:1056D00001EB0A0208440A490968096E0B6801993E
:1056E000984788F0010850466D1C064909688D42AC
:1056F000E7DB641CB4427FF748AF07B0BDE8F08F2A
:105700002C0000102C080010C00A001010B500205A
:1057100002F0D0FC6FF07F4002F0D7FC012002F0D5
:1057200069FD002002F074FD002002F081FD0020E0
:1057300002F0E8FC0448006802F0F0FCBDE810400C
:10574000002002F029BD00002800001070B50C46B2
:10575000054600F0FDF8A8682168C1626168016330
:10576000A1684163490707D5D0E90021C0E90012CB
:10577000D0E90221C0E90212A189818421690029AE
:1057800003D001DC4FF00001016270BD2DE9F04152
:105790001E4617468846054600F0DAF8AC686822CF
:1057A000414604F58670FDF7AAF92846B847284611
:1057B000B047286980688047A062BDE8F08100009A
:1057C00010B5044600F0C4F8A0680F49C0F8AC104A
:1057D0000E49C0F8A8100E49C0F8B0100D49C0F825
:1057E000B8100D49C0F8B4100C49C0F8C4100C49E9
:1057F000C0F8C81030F8261F21F0030120F8261B3E
:105800000849816410BD000085860100D98A010025
:10581000498601001F800100078001009B80010074
:10582000D38001007185010010B5044600F090F8A6
:10583000A46810481021C4F8E4000F48C4F8E80038
:105840000E48C4F8EC000E48C4F8F0000D48C4F847
:10585000A0000D48C4F8A400D4F8C400C4F8FC00AB
:10586000D4F89420204690471020A0630748606435
:1058700010BD00008516010071390100915800002B
:10588000C1590000E97F01002D940100B4E0060039
:10589000F8B5846815460F4694F8260080074CD565
:1058A000D4F80031204698470646D4F804312A46F9
:1058B000394620469847D4F8983005461BB1002257
:1058C0000121204698472069B04201DD012000E017
:1058D0000020A169B14201DA012100E00021084362
:1058E0006169A94201DD012100E000210843E1696D
:1058F000A94201DA012100E0002108430AD06068D2
:105900000022401E00902368D4F8A870114620465B
:105910005B1EB847D4F8AC302A463146204698473B
:10592000D4F8A01020468847D4F8983005466BB1CB
:10593000012200212046984708E0D4F8AC302046E8
:105940009847D4F8A0102046884705462846F8BD59
:1059500070B504468068002812D14FF4BA75284605
:1059600000F0B8FA2A460021A06003F0ECFEA0681F
:105970000221C1840121046401620249C0F80811B6
:1059800070BD00008959000010B590B00446202277
:105990000A496846FDF7B3F808492022203108A8D3
:1059A000FDF7ADF8606B5DF82010C4F8001108A990
:1059B00051F82000C4F8040110B010BD74AD060009
:1059C0002DE9F84384689846154694F826000F465A
:1059D000800740D5D4F80031204698470646D4F8D1
:1059E00004312A4639462046984705462069B04288
:1059F00001DD012000E00020A169B14201DA0121AE
:105A000000E0002108436169A94201DD012100E0B5
:105A100000210843E169A94201DA012100E00021E7
:105A200008430AD060680022401E00902368D4F822
:105A3000A870114620465B1EB847D4F8AC302A4601
:105A4000314620469847D4F8A42001B0414620466C
:105A5000BDE8F0431047D4F8AC30F2E72DE9F04F41
:105A6000DFF828B191B04FF0FF35DBF80030B3F923
:105A700022100691DE69B3F924A0F469A18981425C
:105A800006D8E289824203D3471AD4F8008012E094
:105A9000D4E90181002970D00A8882426DD84D88EE
:105AA00085426AD3801A82B2486800EB8200B0F95E
:105AB0000070B0F90250781C5FD0307EA27C0146A5
:105AC00000FB02F9207CCDE90710B3F92A603046CB
:105AD00004F0A2FBC0B20E90DBF8001007FB0980B7
